{
  "contractName": "ZombieAttack",
  "abi": [
    {
      "constant": false,
      "inputs": [
        {
          "name": "_zombieId",
          "type": "uint256"
        }
      ],
      "name": "levelUp",
      "outputs": [],
      "payable": true,
      "stateMutability": "payable",
      "type": "function"
    },
    {
      "constant": false,
      "inputs": [
        {
          "name": "_zombieId",
          "type": "uint256"
        },
        {
          "name": "_kittyId",
          "type": "uint256"
        }
      ],
      "name": "feedOnKitty",
      "outputs": [],
      "payable": false,
      "stateMutability": "nonpayable",
      "type": "function"
    },
    {
      "constant": true,
      "inputs": [
        {
          "name": "",
          "type": "uint256"
        }
      ],
      "name": "zombies",
      "outputs": [
        {
          "name": "id",
          "type": "uint256"
        },
        {
          "name": "name",
          "type": "string"
        },
        {
          "name": "dna",
          "type": "uint256"
        },
        {
          "name": "level",
          "type": "uint32"
        },
        {
          "name": "readyTime",
          "type": "uint32"
        },
        {
          "name": "winCount",
          "type": "uint16"
        },
        {
          "name": "lossCount",
          "type": "uint16"
        }
      ],
      "payable": false,
      "stateMutability": "view",
      "type": "function"
    },
    {
      "constant": false,
      "inputs": [],
      "name": "withdraw",
      "outputs": [],
      "payable": false,
      "stateMutability": "nonpayable",
      "type": "function"
    },
    {
      "constant": true,
      "inputs": [
        {
          "name": "_owner",
          "type": "address"
        }
      ],
      "name": "getZombiesByOwner",
      "outputs": [
        {
          "name": "",
          "type": "uint256[]"
        }
      ],
      "payable": false,
      "stateMutability": "view",
      "type": "function"
    },
    {
      "constant": true,
      "inputs": [
        {
          "name": "",
          "type": "uint256"
        }
      ],
      "name": "humanToZombie",
      "outputs": [
        {
          "name": "",
          "type": "address"
        }
      ],
      "payable": false,
      "stateMutability": "view",
      "type": "function"
    },
    {
      "constant": true,
      "inputs": [
        {
          "name": "",
          "type": "uint256"
        }
      ],
      "name": "zombieToOwner",
      "outputs": [
        {
          "name": "",
          "type": "address"
        }
      ],
      "payable": false,
      "stateMutability": "view",
      "type": "function"
    },
    {
      "constant": true,
      "inputs": [
        {
          "name": "_owner",
          "type": "address"
        }
      ],
      "name": "getAllHumans",
      "outputs": [
        {
          "name": "",
          "type": "uint256[]"
        }
      ],
      "payable": false,
      "stateMutability": "view",
      "type": "function"
    },
    {
      "constant": false,
      "inputs": [
        {
          "name": "_address",
          "type": "address"
        }
      ],
      "name": "setKittyContractAddress",
      "outputs": [],
      "payable": false,
      "stateMutability": "nonpayable",
      "type": "function"
    },
    {
      "constant": false,
      "inputs": [
        {
          "name": "_zombieId",
          "type": "uint256"
        },
        {
          "name": "_newDna",
          "type": "uint256"
        }
      ],
      "name": "changeDna",
      "outputs": [],
      "payable": true,
      "stateMutability": "payable",
      "type": "function"
    },
    {
      "constant": false,
      "inputs": [],
      "name": "renounceOwnership",
      "outputs": [],
      "payable": false,
      "stateMutability": "nonpayable",
      "type": "function"
    },
    {
      "constant": false,
      "inputs": [
        {
          "name": "_name",
          "type": "string"
        }
      ],
      "name": "createRandomZombie",
      "outputs": [],
      "payable": false,
      "stateMutability": "nonpayable",
      "type": "function"
    },
    {
      "constant": true,
      "inputs": [
        {
          "name": "",
          "type": "uint256"
        }
      ],
      "name": "humans",
      "outputs": [
        {
          "name": "name",
          "type": "uint256"
        },
        {
          "name": "dna",
          "type": "uint256"
        }
      ],
      "payable": false,
      "stateMutability": "view",
      "type": "function"
    },
    {
      "constant": false,
      "inputs": [
        {
          "name": "_zombieId",
          "type": "uint256"
        },
        {
          "name": "_humanId",
          "type": "uint256"
        },
        {
          "name": "name",
          "type": "string"
        }
      ],
      "name": "feedOnHumans",
      "outputs": [],
      "payable": true,
      "stateMutability": "payable",
      "type": "function"
    },
    {
      "constant": true,
      "inputs": [],
      "name": "owner",
      "outputs": [
        {
          "name": "",
          "type": "address"
        }
      ],
      "payable": false,
      "stateMutability": "view",
      "type": "function"
    },
    {
      "constant": true,
      "inputs": [],
      "name": "isOwner",
      "outputs": [
        {
          "name": "",
          "type": "bool"
        }
      ],
      "payable": false,
      "stateMutability": "view",
      "type": "function"
    },
    {
      "constant": true,
      "inputs": [
        {
          "name": "",
          "type": "address"
        }
      ],
      "name": "ownerZombieHumanCount",
      "outputs": [
        {
          "name": "",
          "type": "uint256"
        }
      ],
      "payable": false,
      "stateMutability": "view",
      "type": "function"
    },
    {
      "constant": false,
      "inputs": [
        {
          "name": "_zombieId",
          "type": "uint256"
        },
        {
          "name": "_newName",
          "type": "string"
        }
      ],
      "name": "changeName",
      "outputs": [],
      "payable": true,
      "stateMutability": "payable",
      "type": "function"
    },
    {
      "constant": false,
      "inputs": [
        {
          "name": "_fee",
          "type": "uint256"
        }
      ],
      "name": "setLevelUpFee",
      "outputs": [],
      "payable": false,
      "stateMutability": "nonpayable",
      "type": "function"
    },
    {
      "constant": false,
      "inputs": [
        {
          "name": "newOwner",
          "type": "address"
        }
      ],
      "name": "transferOwnership",
      "outputs": [],
      "payable": false,
      "stateMutability": "nonpayable",
      "type": "function"
    },
    {
      "anonymous": false,
      "inputs": [
        {
          "indexed": false,
          "name": "zombieId",
          "type": "uint256"
        },
        {
          "indexed": false,
          "name": "name",
          "type": "string"
        },
        {
          "indexed": false,
          "name": "dna",
          "type": "uint256"
        }
      ],
      "name": "NewZombie",
      "type": "event"
    },
    {
      "anonymous": false,
      "inputs": [
        {
          "indexed": true,
          "name": "previousOwner",
          "type": "address"
        },
        {
          "indexed": true,
          "name": "newOwner",
          "type": "address"
        }
      ],
      "name": "OwnershipTransferred",
      "type": "event"
    },
    {
      "constant": false,
      "inputs": [
        {
          "name": "_zombieId",
          "type": "uint256"
        },
        {
          "name": "_targetId",
          "type": "uint256"
        }
      ],
      "name": "attack",
      "outputs": [],
      "payable": false,
      "stateMutability": "nonpayable",
      "type": "function"
    }
  ],
  "bytecode": "0x60806040526010600155600154600a0a6002556201518060035566038d7ea4c6800060075566038d7ea4c68000600c5566038d7ea4c68000600d556000600e556046600f55600080336000806101000a81548173ffffffffffffffffffffffffffffffffffffffff021916908373ffffffffffffffffffffffffffffffffffffffff1602179055506000809054906101000a900473ffffffffffffffffffffffffffffffffffffffff1673ffffffffffffffffffffffffffffffffffffffff16600073ffffffffffffffffffffffffffffffffffffffff167f8be0079c531659141344cd1fd0a4f28419497f9722a3daafe3b4186f6b6457e060405160405180910390a3600091505b600a8210156102115781604051602001808281526020019150506040516020818303038152906040526040518082805190602001908083835b6020831015156101665780518252602082019150602081019050602083039250610141565b6001836020036101000a0380198251168184511680821785525050505050509050019150506040518091039020600190049050600b6040805190810160405280848152602001662386f26fc10000848115156101be57fe5b068152509080600181540180825580915050906001820390600052602060002090600202016000909192909190915060008201518160000155602082015181600101555050508180600101925050610108565b505061248180620002236000396000f30060806040526004361061011d576000357c0100000000000000000000000000000000000000000000000000000000900463ffffffff1680630ce90ec21461012257806317a7f4cc146101425780632052465e146101795780633ccfd60b146102715780634412e104146102885780635141eb3a14610320578063528b7b8f1461038d5780635bf5f06a146103fa5780635f4623f1146104925780635faf2880146104d5578063715018a6146104ff5780637bff0a01146105165780638102fced1461057f5780638d8fd597146105c75780638da5cb5b146106095780638f32d59b14610660578063b77dd18b1461068f578063c39cbef1146106e6578063ccf670f81461071e578063e1fa76381461074b578063f2fde38b14610782575b600080fd5b610140600480360381019080803590602001909291905050506107c5565b005b34801561014e57600080fd5b506101776004803603810190808035906020019092919080359060200190929190505050610860565b005b34801561018557600080fd5b506101a460048036038101908080359060200190929190505050610a09565b60405180888152602001806020018781526020018663ffffffff1663ffffffff1681526020018563ffffffff1663ffffffff1681526020018461ffff1661ffff1681526020018361ffff1661ffff168152602001828103825288818151815260200191508051906020019080838360005b83811015610230578082015181840152602081019050610215565b50505050905090810190601f16801561025d5780820380516001836020036101000a031916815260200191505b509850505050505050505060405180910390f35b34801561027d57600080fd5b50610286610b2e565b005b34801561029457600080fd5b506102c9600480360381019080803573ffffffffffffffffffffffffffffffffffffffff169060200190929190505050610bae565b6040518080602001828103825283818151815260200191508051906020019060200280838360005b8381101561030c5780820151818401526020810190506102f1565b505050509050019250505060405180910390f35b34801561032c57600080fd5b5061034b60048036038101908080359060200190929190505050610ce0565b604051808273ffffffffffffffffffffffffffffffffffffffff1673ffffffffffffffffffffffffffffffffffffffff16815260200191505060405180910390f35b34801561039957600080fd5b506103b860048036038101908080359060200190929190505050610d13565b604051808273ffffffffffffffffffffffffffffffffffffffff1673ffffffffffffffffffffffffffffffffffffffff16815260200191505060405180910390f35b34801561040657600080fd5b5061043b600480360381019080803573ffffffffffffffffffffffffffffffffffffffff169060200190929190505050610d46565b6040518080602001828103825283818151815260200191508051906020019060200280838360005b8381101561047e578082015181840152602081019050610463565b505050509050019250505060405180910390f35b34801561049e57600080fd5b506104d3600480360381019080803573ffffffffffffffffffffffffffffffffffffffff169060200190929190505050610e3f565b005b6104fd6004803603810190808035906020019092919080359060200190929190505050610e96565b005b34801561050b57600080fd5b50610514611039565b005b34801561052257600080fd5b5061057d600480360381019080803590602001908201803590602001908080601f016020809104026020016040519081016040528093929190818152602001838380828437820191505050505050919291929050505061110b565b005b34801561058b57600080fd5b506105aa60048036038101908080359060200190929190505050611137565b604051808381526020018281526020019250505060405180910390f35b610607600480360381019080803590602001909291908035906020019092919080359060200190820180359060200191909192939192939050505061116a565b005b34801561061557600080fd5b5061061e61120e565b604051808273ffffffffffffffffffffffffffffffffffffffff1673ffffffffffffffffffffffffffffffffffffffff16815260200191505060405180910390f35b34801561066c57600080fd5b50610675611237565b604051808215151515815260200191505060405180910390f35b34801561069b57600080fd5b506106d0600480360381019080803573ffffffffffffffffffffffffffffffffffffffff16906020019092919050505061128e565b6040518082815260200191505060405180910390f35b61071c600480360381019080803590602001909291908035906020019082018035906020019190919293919293905050506112a6565b005b34801561072a57600080fd5b50610749600480360381019080803590602001909291905050506113aa565b005b34801561075757600080fd5b5061078060048036038101908080359060200190929190803590602001909291905050506113c7565b005b34801561078e57600080fd5b506107c3600480360381019080803573ffffffffffffffffffffffffffffffffffffffff16906020019092919050505061165a565b005b600c54341415156107d557600080fd5b61081f60016004838154811015156107e957fe5b906000526020600020906004020160030160009054906101000a900463ffffffff1663ffffffff1661167990919063ffffffff16565b60048281548110151561082e57fe5b906000526020600020906004020160030160006101000a81548163ffffffff021916908363ffffffff16021790555050565b6000600860009054906101000a900473ffffffffffffffffffffffffffffffffffffffff1673ffffffffffffffffffffffffffffffffffffffff1663e98b7f4d836040518263ffffffff167c01000000000000000000000000000000000000000000000000000000000281526004018082815260200191505061014060405180830381600087803b1580156108f457600080fd5b505af1158015610908573d6000803e3d6000fd5b505050506040513d61014081101561091f57600080fd5b810190808051906020019092919080519060200190929190805190602001909291908051906020019092919080519060200190929190805190602001909291908051906020019092919080519060200190929190805190602001909291908051906020019092919050505090919293949596979850909192939495969750909192939495965090919293949550909192939450909192935090919250909150905080915050610a0483826040805190810160405280600581526020017f6b697474790000000000000000000000000000000000000000000000000000008152506116a3565b505050565b600481815481101515610a1857fe5b9060005260206000209060040201600091509050806000015490806001018054600181600116156101000203166002900480601f016020809104026020016040519081016040528092919081815260200182805460018160011615610100020316600290048015610aca5780601f10610a9f57610100808354040283529160200191610aca565b820191906000526020600020905b815481529060010190602001808311610aad57829003601f168201915b5050505050908060020154908060030160009054906101000a900463ffffffff16908060030160049054906101000a900463ffffffff16908060030160089054906101000a900461ffff169080600301600a9054906101000a900461ffff16905087565b6000610b38611237565b1515610b4357600080fd5b610b4b61120e565b90508073ffffffffffffffffffffffffffffffffffffffff166108fc3073ffffffffffffffffffffffffffffffffffffffff16319081150290604051600060405180830381858888f19350505050158015610baa573d6000803e3d6000fd5b5050565b606080600080600660008673ffffffffffffffffffffffffffffffffffffffff1673ffffffffffffffffffffffffffffffffffffffff16815260200190815260200160002054604051908082528060200260200182016040528015610c225781602001602082028038833980820191505090505b50925060009150600090505b600480549050811015610cd5578473ffffffffffffffffffffffffffffffffffffffff166005600083815260200190815260200160002060009054906101000a900473ffffffffffffffffffffffffffffffffffffffff1673ffffffffffffffffffffffffffffffffffffffff161415610cc857808383815181101515610cb157fe5b906020019060200201818152505081806001019250505b8080600101915050610c2e565b829350505050919050565b60096020528060005260406000206000915054906101000a900473ffffffffffffffffffffffffffffffffffffffff1681565b60056020528060005260406000206000915054906101000a900473ffffffffffffffffffffffffffffffffffffffff1681565b606080600080600b80549050604051908082528060200260200182016040528015610d805781602001602082028038833980820191505090505b50925060009150600090505b600b80549050811015610e3457600073ffffffffffffffffffffffffffffffffffffffff166009600083815260200190815260200160002060009054906101000a900473ffffffffffffffffffffffffffffffffffffffff1673ffffffffffffffffffffffffffffffffffffffff161415610e2757808383815181101515610e1057fe5b906020019060200201818152505081806001019250505b8080600101915050610d8c565b829350505050919050565b610e47611237565b1515610e5257600080fd5b80600860006101000a81548173ffffffffffffffffffffffffffffffffffffffff021916908373ffffffffffffffffffffffffffffffffffffffff16021790555050565b60008060148481600482815481101515610eac57fe5b906000526020600020906004020160030160009054906101000a900463ffffffff1663ffffffff1610151515610ee157600080fd5b856005600082815260200190815260200160002060009054906101000a900473ffffffffffffffffffffffffffffffffffffffff1673ffffffffffffffffffffffffffffffffffffffff163373ffffffffffffffffffffffffffffffffffffffff16141515610f4f57600080fd5b600d5434141515610f5f57600080fd5b600487815481101515610f6e57fe5b9060005260206000209060040201945085604051602001808281526020019150506040516020818303038152906040526040518082805190602001908083835b602083101515610fd35780518252602082019150602081019050602083039250610fae565b6001836020036101000a03801982511681845116808217855250505050505090500191505060405180910390206001900493506002548481151561101357fe5b06935060648481151561102257fe5b068403935083856002018190555050505050505050565b611041611237565b151561104c57600080fd5b600073ffffffffffffffffffffffffffffffffffffffff166000809054906101000a900473ffffffffffffffffffffffffffffffffffffffff1673ffffffffffffffffffffffffffffffffffffffff167f8be0079c531659141344cd1fd0a4f28419497f9722a3daafe3b4186f6b6457e060405160405180910390a360008060006101000a81548173ffffffffffffffffffffffffffffffffffffffff021916908373ffffffffffffffffffffffffffffffffffffffff160217905550565b600061111682611950565b905060648181151561112457fe5b06810390506111338282611a3e565b5050565b600b8181548110151561114657fe5b90600052602060002090600202016000915090508060000154908060010154905082565b6000600b8481548110151561117b57fe5b906000526020600020906002020190506112078582600101546040805190810160405280600681526020017f68756d616e73000000000000000000000000000000000000000000000000000081525086868080601f0160208091040260200160405190810160405280939291908181526020018383808284378201915050505050508560000154611d4c565b5050505050565b60008060009054906101000a900473ffffffffffffffffffffffffffffffffffffffff16905090565b60008060009054906101000a900473ffffffffffffffffffffffffffffffffffffffff1673ffffffffffffffffffffffffffffffffffffffff163373ffffffffffffffffffffffffffffffffffffffff1614905090565b600a6020528060005260406000206000915090505481565b6000600284816004828154811015156112bb57fe5b906000526020600020906004020160030160009054906101000a900463ffffffff1663ffffffff16101515156112f057600080fd5b856005600082815260200190815260200160002060009054906101000a900473ffffffffffffffffffffffffffffffffffffffff1673ffffffffffffffffffffffffffffffffffffffff163373ffffffffffffffffffffffffffffffffffffffff1614151561135e57600080fd5b600d543414151561136e57600080fd5b60048781548110151561137d57fe5b9060005260206000209060040201935085858560010191906113a0929190612330565b5050505050505050565b6113b2611237565b15156113bd57600080fd5b80600c8190555050565b6000806000846005600082815260200190815260200160002060009054906101000a900473ffffffffffffffffffffffffffffffffffffffff1673ffffffffffffffffffffffffffffffffffffffff163373ffffffffffffffffffffffffffffffffffffffff1614151561143a57600080fd5b60048681548110151561144957fe5b9060005260206000209060040201935060048581548110151561146857fe5b90600052602060002090600402019250611482606461209e565b9150600f54821115156115b8576114b960018560030160089054906101000a900461ffff1661ffff166121a190919063ffffffff16565b8460030160086101000a81548161ffff021916908361ffff16021790555061150560018560030160009054906101000a900463ffffffff1663ffffffff1661167990919063ffffffff16565b8460030160006101000a81548163ffffffff021916908363ffffffff160217905550611551600184600301600a9054906101000a900461ffff1661ffff166121a190919063ffffffff16565b83600301600a6101000a81548161ffff021916908361ffff1602179055506115b38684600201546040805190810160405280600681526020017f7a6f6d62696500000000000000000000000000000000000000000000000000008152506116a3565b611652565b6115e2600185600301600a9054906101000a900461ffff1661ffff166121a190919063ffffffff16565b84600301600a6101000a81548161ffff021916908361ffff16021790555061162a60018460030160089054906101000a900461ffff1661ffff166121a190919063ffffffff16565b8360030160086101000a81548161ffff021916908361ffff160217905550611651846121c7565b5b505050505050565b611662611237565b151561166d57600080fd5b611676816121f1565b50565b60008082840190508363ffffffff168163ffffffff161015151561169957fe5b8091505092915050565b600080846005600082815260200190815260200160002060009054906101000a900473ffffffffffffffffffffffffffffffffffffffff1673ffffffffffffffffffffffffffffffffffffffff163373ffffffffffffffffffffffffffffffffffffffff1614151561171457600080fd5b60048681548110151561172357fe5b9060005260206000209060040201925061173c836122eb565b151561174757600080fd5b6002548581151561175457fe5b06945060028584600201540181151561176957fe5b04915060405160200180807f6b6974747900000000000000000000000000000000000000000000000000000081525060050190506040516020818303038152906040526040518082805190602001908083835b6020831015156117e157805182526020820191506020810190506020830392506117bc565b6001836020036101000a038019825116818451168082178552505050505050905001915050604051809103902060001916846040516020018082805190602001908083835b60208310151561184b5780518252602082019150602081019050602083039250611826565b6001836020036101000a0380198251168184511680821785525050505050509050019150506040516020818303038152906040526040518082805190602001908083835b6020831015156118b4578051825260208201915060208101905060208303925061188f565b6001836020036101000a03801982511681845116808217855250505050505090500191505060405180910390206000191614156119005760636064838115156118f957fe5b0683030191505b61193f6040805190810160405280600681526020017f4e6f4e616d65000000000000000000000000000000000000000000000000000081525083611a3e565b611948836121c7565b505050505050565b600080826040516020018082805190602001908083835b60208310151561198c5780518252602082019150602081019050602083039250611967565b6001836020036101000a0380198251168184511680821785525050505050509050019150506040516020818303038152906040526040518082805190602001908083835b6020831015156119f557805182526020820191506020810190506020830392506119d0565b6001836020036101000a038019825116818451168082178552505050505050905001915050604051809103902060019004905060025481811515611a3557fe5b06915050919050565b6000806001600460e06040519081016040528060008152602001878152602001868152602001600163ffffffff168152602001600354420163ffffffff168152602001600061ffff168152602001600061ffff1681525090806001815401808255809150509060018203906000526020600020906004020160009091929091909150600082015181600001556020820151816001019080519060200190611ae69291906123b0565b506040820151816002015560608201518160030160006101000a81548163ffffffff021916908363ffffffff16021790555060808201518160030160046101000a81548163ffffffff021916908363ffffffff16021790555060a08201518160030160086101000a81548161ffff021916908361ffff16021790555060c082015181600301600a6101000a81548161ffff021916908361ffff1602179055505050039150336005600084815260200190815260200160002060006101000a81548173ffffffffffffffffffffffffffffffffffffffff021916908373ffffffffffffffffffffffffffffffffffffffff160217905550611c2f6001600660003373ffffffffffffffffffffffffffffffffffffffff1673ffffffffffffffffffffffffffffffffffffffff1681526020019081526020016000205461231290919063ffffffff16565b600660003373ffffffffffffffffffffffffffffffffffffffff1673ffffffffffffffffffffffffffffffffffffffff16815260200190815260200160002081905550600482815481101515611c8157fe5b906000526020600020906004020190508181600001819055507f88f026aacbbecc90c18411df4b1185fd8d9be2470f1962f192bf84a27d0704b78285856040518084815260200180602001838152602001828103825284818151815260200191508051906020019080838360005b83811015611d0a578082015181840152602081019050611cef565b50505050905090810190601f168015611d375780820380516001836020036101000a031916815260200191505b5094505050505060405180910390a150505050565b600080866005600082815260200190815260200160002060009054906101000a900473ffffffffffffffffffffffffffffffffffffffff1673ffffffffffffffffffffffffffffffffffffffff163373ffffffffffffffffffffffffffffffffffffffff16141515611dbd57600080fd5b600488815481101515611dcc57fe5b90600052602060002090600402019250611de5836122eb565b1515611df057600080fd5b600287846002015401811515611e0257fe5b04915060405160200180807f68756d616e73000000000000000000000000000000000000000000000000000081525060060190506040516020818303038152906040526040518082805190602001908083835b602083101515611e7a5780518252602082019150602081019050602083039250611e55565b6001836020036101000a038019825116818451168082178552505050505050905001915050604051809103902060001916866040516020018082805190602001908083835b602083101515611ee45780518252602082019150602081019050602083039250611ebf565b6001836020036101000a0380198251168184511680821785525050505050509050019150506040516020818303038152906040526040518082805190602001908083835b602083101515611f4d5780518252602082019150602081019050602083039250611f28565b6001836020036101000a0380198251168184511680821785525050505050509050019150506040518091039020600019161415611f99576063606483811515611f9257fe5b0683030191505b611fa38583611a3e565b336009600086815260200190815260200160002060006101000a81548173ffffffffffffffffffffffffffffffffffffffff021916908373ffffffffffffffffffffffffffffffffffffffff1602179055506120486001600a60003373ffffffffffffffffffffffffffffffffffffffff1673ffffffffffffffffffffffffffffffffffffffff1681526020019081526020016000205461231290919063ffffffff16565b600a60003373ffffffffffffffffffffffffffffffffffffffff1673ffffffffffffffffffffffffffffffffffffffff16815260200190815260200160002081905550612094836121c7565b5050505050505050565b60006120b66001600e5461231290919063ffffffff16565b600e81905550814233600e54604051602001808481526020018373ffffffffffffffffffffffffffffffffffffffff1673ffffffffffffffffffffffffffffffffffffffff166c0100000000000000000000000002815260140182815260200193505050506040516020818303038152906040526040518082805190602001908083835b60208310151561215f578051825260208201915060208101905060208303925061213a565b6001836020036101000a03801982511681845116808217855250505050505090500191505060405180910390206001900481151561219957fe5b069050919050565b60008082840190508361ffff168161ffff16101515156121bd57fe5b8091505092915050565b60035442018160030160046101000a81548163ffffffff021916908363ffffffff16021790555050565b600073ffffffffffffffffffffffffffffffffffffffff168173ffffffffffffffffffffffffffffffffffffffff161415151561222d57600080fd5b8073ffffffffffffffffffffffffffffffffffffffff166000809054906101000a900473ffffffffffffffffffffffffffffffffffffffff1673ffffffffffffffffffffffffffffffffffffffff167f8be0079c531659141344cd1fd0a4f28419497f9722a3daafe3b4186f6b6457e060405160405180910390a3806000806101000a81548173ffffffffffffffffffffffffffffffffffffffff021916908373ffffffffffffffffffffffffffffffffffffffff16021790555050565b6000428260030160049054906101000a900463ffffffff1663ffffffff1611159050919050565b600080828401905083811015151561232657fe5b8091505092915050565b828054600181600116156101000203166002900490600052602060002090601f016020900481019282601f1061237157803560ff191683800117855561239f565b8280016001018555821561239f579182015b8281111561239e578235825591602001919060010190612383565b5b5090506123ac9190612430565b5090565b828054600181600116156101000203166002900490600052602060002090601f016020900481019282601f106123f157805160ff191683800117855561241f565b8280016001018555821561241f579182015b8281111561241e578251825591602001919060010190612403565b5b50905061242c9190612430565b5090565b61245291905b8082111561244e576000816000905550600101612436565b5090565b905600a165627a7a723058202ffe24c6d82eee28bb138a4c6f2a0f51ce6316276ebbec67eca4b571affb7cb90029",
  "source": "pragma solidity ^0.4.25;\n\nimport \"./zombiehelper.sol\";\n\ncontract ZombieAttack is ZombieHelper {\n  uint randNonce = 0;\n  uint attackVictoryProbability = 70;\n\n  function randMod(uint _modulus) internal returns(uint) {\n    randNonce = randNonce.add(1);\n    return uint(keccak256(abi.encodePacked(now, msg.sender, randNonce))) % _modulus;\n  }\n\n  function attack(uint _zombieId, uint _targetId) external onlyOwnerOf(_zombieId) {\n    Zombie storage myZombie = zombies[_zombieId];\n    Zombie storage enemyZombie = zombies[_targetId];\n    uint rand = randMod(100);\n    if (rand <= attackVictoryProbability) {\n      myZombie.winCount = myZombie.winCount.add(1);\n      myZombie.level = myZombie.level.add(1);\n      enemyZombie.lossCount = enemyZombie.lossCount.add(1);\n      feedAndMultiply(_zombieId, enemyZombie.dna, \"zombie\");\n    } else {\n      myZombie.lossCount = myZombie.lossCount.add(1);\n      enemyZombie.winCount = enemyZombie.winCount.add(1);\n      _triggerCooldown(myZombie);\n    }\n  }\n}\n",
  "sourcePath": "/Users/naveenyalla/Downloads/Cryptozombie demo package/contracts/zombieattack.sol",
  "compiler": {
    "name": "solc",
    "version": "0.4.25+commit.59dbf8f1.Emscripten.clang"
  },
  "schemaVersion": "3.4.6",
  "updatedAt": "2022-03-19T06:37:12.225Z",
  "devdoc": {
    "methods": {
      "isOwner()": {
        "return": "true if `msg.sender` is the owner of the contract."
      },
      "owner()": {
        "return": "the address of the owner."
      },
      "renounceOwnership()": {
        "details": "Allows the current owner to relinquish control of the contract."
      },
      "transferOwnership(address)": {
        "details": "Allows the current owner to transfer control of the contract to a newOwner.",
        "params": {
          "newOwner": "The address to transfer ownership to."
        }
      }
    }
  },
  "userdoc": {
    "methods": {
      "renounceOwnership()": {
        "notice": "Renouncing to ownership will leave the contract without an owner. It will not be possible to call the functions with the `onlyOwner` modifier anymore."
      }
    }
  }
}