{
  "contractName": "ZombieHelper",
  "abi": [
    {
      "constant": false,
      "inputs": [
        {
          "name": "_zombieId",
          "type": "uint256"
        },
        {
          "name": "_kittyId",
          "type": "uint256"
        }
      ],
      "name": "feedOnKitty",
      "outputs": [],
      "payable": false,
      "stateMutability": "nonpayable",
      "type": "function"
    },
    {
      "constant": true,
      "inputs": [
        {
          "name": "",
          "type": "uint256"
        }
      ],
      "name": "zombies",
      "outputs": [
        {
          "name": "id",
          "type": "uint256"
        },
        {
          "name": "name",
          "type": "string"
        },
        {
          "name": "dna",
          "type": "uint256"
        },
        {
          "name": "level",
          "type": "uint32"
        },
        {
          "name": "readyTime",
          "type": "uint32"
        },
        {
          "name": "winCount",
          "type": "uint16"
        },
        {
          "name": "lossCount",
          "type": "uint16"
        }
      ],
      "payable": false,
      "stateMutability": "view",
      "type": "function"
    },
    {
      "constant": true,
      "inputs": [
        {
          "name": "",
          "type": "uint256"
        }
      ],
      "name": "humanToZombie",
      "outputs": [
        {
          "name": "",
          "type": "address"
        }
      ],
      "payable": false,
      "stateMutability": "view",
      "type": "function"
    },
    {
      "constant": true,
      "inputs": [
        {
          "name": "",
          "type": "uint256"
        }
      ],
      "name": "zombieToOwner",
      "outputs": [
        {
          "name": "",
          "type": "address"
        }
      ],
      "payable": false,
      "stateMutability": "view",
      "type": "function"
    },
    {
      "constant": false,
      "inputs": [
        {
          "name": "_address",
          "type": "address"
        }
      ],
      "name": "setKittyContractAddress",
      "outputs": [],
      "payable": false,
      "stateMutability": "nonpayable",
      "type": "function"
    },
    {
      "constant": false,
      "inputs": [],
      "name": "renounceOwnership",
      "outputs": [],
      "payable": false,
      "stateMutability": "nonpayable",
      "type": "function"
    },
    {
      "constant": false,
      "inputs": [
        {
          "name": "_name",
          "type": "string"
        }
      ],
      "name": "createRandomZombie",
      "outputs": [],
      "payable": false,
      "stateMutability": "nonpayable",
      "type": "function"
    },
    {
      "constant": true,
      "inputs": [
        {
          "name": "",
          "type": "uint256"
        }
      ],
      "name": "humans",
      "outputs": [
        {
          "name": "name",
          "type": "uint256"
        },
        {
          "name": "dna",
          "type": "uint256"
        }
      ],
      "payable": false,
      "stateMutability": "view",
      "type": "function"
    },
    {
      "constant": false,
      "inputs": [
        {
          "name": "_zombieId",
          "type": "uint256"
        },
        {
          "name": "_humanId",
          "type": "uint256"
        },
        {
          "name": "name",
          "type": "string"
        }
      ],
      "name": "feedOnHumans",
      "outputs": [],
      "payable": true,
      "stateMutability": "payable",
      "type": "function"
    },
    {
      "constant": true,
      "inputs": [],
      "name": "owner",
      "outputs": [
        {
          "name": "",
          "type": "address"
        }
      ],
      "payable": false,
      "stateMutability": "view",
      "type": "function"
    },
    {
      "constant": true,
      "inputs": [],
      "name": "isOwner",
      "outputs": [
        {
          "name": "",
          "type": "bool"
        }
      ],
      "payable": false,
      "stateMutability": "view",
      "type": "function"
    },
    {
      "constant": true,
      "inputs": [
        {
          "name": "",
          "type": "address"
        }
      ],
      "name": "ownerZombieHumanCount",
      "outputs": [
        {
          "name": "",
          "type": "uint256"
        }
      ],
      "payable": false,
      "stateMutability": "view",
      "type": "function"
    },
    {
      "constant": false,
      "inputs": [
        {
          "name": "newOwner",
          "type": "address"
        }
      ],
      "name": "transferOwnership",
      "outputs": [],
      "payable": false,
      "stateMutability": "nonpayable",
      "type": "function"
    },
    {
      "anonymous": false,
      "inputs": [
        {
          "indexed": false,
          "name": "zombieId",
          "type": "uint256"
        },
        {
          "indexed": false,
          "name": "name",
          "type": "string"
        },
        {
          "indexed": false,
          "name": "dna",
          "type": "uint256"
        }
      ],
      "name": "NewZombie",
      "type": "event"
    },
    {
      "anonymous": false,
      "inputs": [
        {
          "indexed": true,
          "name": "previousOwner",
          "type": "address"
        },
        {
          "indexed": true,
          "name": "newOwner",
          "type": "address"
        }
      ],
      "name": "OwnershipTransferred",
      "type": "event"
    },
    {
      "constant": false,
      "inputs": [],
      "name": "withdraw",
      "outputs": [],
      "payable": false,
      "stateMutability": "nonpayable",
      "type": "function"
    },
    {
      "constant": false,
      "inputs": [
        {
          "name": "_fee",
          "type": "uint256"
        }
      ],
      "name": "setLevelUpFee",
      "outputs": [],
      "payable": false,
      "stateMutability": "nonpayable",
      "type": "function"
    },
    {
      "constant": false,
      "inputs": [
        {
          "name": "_zombieId",
          "type": "uint256"
        }
      ],
      "name": "levelUp",
      "outputs": [],
      "payable": true,
      "stateMutability": "payable",
      "type": "function"
    },
    {
      "constant": false,
      "inputs": [
        {
          "name": "_zombieId",
          "type": "uint256"
        },
        {
          "name": "_newName",
          "type": "string"
        }
      ],
      "name": "changeName",
      "outputs": [],
      "payable": true,
      "stateMutability": "payable",
      "type": "function"
    },
    {
      "constant": false,
      "inputs": [
        {
          "name": "_zombieId",
          "type": "uint256"
        },
        {
          "name": "_newDna",
          "type": "uint256"
        }
      ],
      "name": "changeDna",
      "outputs": [],
      "payable": true,
      "stateMutability": "payable",
      "type": "function"
    },
    {
      "constant": true,
      "inputs": [
        {
          "name": "_owner",
          "type": "address"
        }
      ],
      "name": "getZombiesByOwner",
      "outputs": [
        {
          "name": "",
          "type": "uint256[]"
        }
      ],
      "payable": false,
      "stateMutability": "view",
      "type": "function"
    },
    {
      "constant": true,
      "inputs": [
        {
          "name": "_owner",
          "type": "address"
        }
      ],
      "name": "getAllHumans",
      "outputs": [
        {
          "name": "",
          "type": "uint256[]"
        }
      ],
      "payable": false,
      "stateMutability": "view",
      "type": "function"
    }
  ],
  "bytecode": "0x60806040526010600155600154600a0a6002556201518060035566038d7ea4c6800060075566038d7ea4c68000600c5566038d7ea4c68000600d55600080336000806101000a81548173ffffffffffffffffffffffffffffffffffffffff021916908373ffffffffffffffffffffffffffffffffffffffff1602179055506000809054906101000a900473ffffffffffffffffffffffffffffffffffffffff1673ffffffffffffffffffffffffffffffffffffffff16600073ffffffffffffffffffffffffffffffffffffffff167f8be0079c531659141344cd1fd0a4f28419497f9722a3daafe3b4186f6b6457e060405160405180910390a3600091505b600a8210156102075781604051602001808281526020019150506040516020818303038152906040526040518082805190602001908083835b60208310151561015c5780518252602082019150602081019050602083039250610137565b6001836020036101000a0380198251168184511680821785525050505050509050019150506040518091039020600190049050600b6040805190810160405280848152602001662386f26fc10000848115156101b457fe5b0681525090806001815401808255809150509060018203906000526020600020906002020160009091929091909150600082015181600001556020820151816001015550505081806001019250506100fe565b5050612083806102186000396000f300608060405260043610610112576000357c0100000000000000000000000000000000000000000000000000000000900463ffffffff1680630ce90ec21461011757806317a7f4cc146101375780632052465e1461016e5780633ccfd60b146102665780634412e1041461027d5780635141eb3a14610315578063528b7b8f146103825780635bf5f06a146103ef5780635f4623f1146104875780635faf2880146104ca578063715018a6146104f45780637bff0a011461050b5780638102fced146105745780638d8fd597146105bc5780638da5cb5b146105fe5780638f32d59b14610655578063b77dd18b14610684578063c39cbef1146106db578063ccf670f814610713578063f2fde38b14610740575b600080fd5b61013560048036038101908080359060200190929190505050610783565b005b34801561014357600080fd5b5061016c600480360381019080803590602001909291908035906020019092919050505061081e565b005b34801561017a57600080fd5b50610199600480360381019080803590602001909291905050506109c7565b60405180888152602001806020018781526020018663ffffffff1663ffffffff1681526020018563ffffffff1663ffffffff1681526020018461ffff1661ffff1681526020018361ffff1661ffff168152602001828103825288818151815260200191508051906020019080838360005b8381101561022557808201518184015260208101905061020a565b50505050905090810190601f1680156102525780820380516001836020036101000a031916815260200191505b509850505050505050505060405180910390f35b34801561027257600080fd5b5061027b610aec565b005b34801561028957600080fd5b506102be600480360381019080803573ffffffffffffffffffffffffffffffffffffffff169060200190929190505050610b6c565b6040518080602001828103825283818151815260200191508051906020019060200280838360005b838110156103015780820151818401526020810190506102e6565b505050509050019250505060405180910390f35b34801561032157600080fd5b5061034060048036038101908080359060200190929190505050610c9e565b604051808273ffffffffffffffffffffffffffffffffffffffff1673ffffffffffffffffffffffffffffffffffffffff16815260200191505060405180910390f35b34801561038e57600080fd5b506103ad60048036038101908080359060200190929190505050610cd1565b604051808273ffffffffffffffffffffffffffffffffffffffff1673ffffffffffffffffffffffffffffffffffffffff16815260200191505060405180910390f35b3480156103fb57600080fd5b50610430600480360381019080803573ffffffffffffffffffffffffffffffffffffffff169060200190929190505050610d04565b6040518080602001828103825283818151815260200191508051906020019060200280838360005b83811015610473578082015181840152602081019050610458565b505050509050019250505060405180910390f35b34801561049357600080fd5b506104c8600480360381019080803573ffffffffffffffffffffffffffffffffffffffff169060200190929190505050610dfd565b005b6104f26004803603810190808035906020019092919080359060200190929190505050610e54565b005b34801561050057600080fd5b50610509610ff7565b005b34801561051757600080fd5b50610572600480360381019080803590602001908201803590602001908080601f01602080910402602001604051908101604052809392919081815260200183838082843782019150505050505091929192905050506110c9565b005b34801561058057600080fd5b5061059f600480360381019080803590602001909291905050506110f5565b604051808381526020018281526020019250505060405180910390f35b6105fc6004803603810190808035906020019092919080359060200190929190803590602001908201803590602001919091929391929390505050611128565b005b34801561060a57600080fd5b506106136111cc565b604051808273ffffffffffffffffffffffffffffffffffffffff1673ffffffffffffffffffffffffffffffffffffffff16815260200191505060405180910390f35b34801561066157600080fd5b5061066a6111f5565b604051808215151515815260200191505060405180910390f35b34801561069057600080fd5b506106c5600480360381019080803573ffffffffffffffffffffffffffffffffffffffff16906020019092919050505061124c565b6040518082815260200191505060405180910390f35b61071160048036038101908080359060200190929190803590602001908201803590602001919091929391929390505050611264565b005b34801561071f57600080fd5b5061073e60048036038101908080359060200190929190505050611368565b005b34801561074c57600080fd5b50610781600480360381019080803573ffffffffffffffffffffffffffffffffffffffff169060200190929190505050611385565b005b600c543414151561079357600080fd5b6107dd60016004838154811015156107a757fe5b906000526020600020906004020160030160009054906101000a900463ffffffff1663ffffffff166113a490919063ffffffff16565b6004828154811015156107ec57fe5b906000526020600020906004020160030160006101000a81548163ffffffff021916908363ffffffff16021790555050565b6000600860009054906101000a900473ffffffffffffffffffffffffffffffffffffffff1673ffffffffffffffffffffffffffffffffffffffff1663e98b7f4d836040518263ffffffff167c01000000000000000000000000000000000000000000000000000000000281526004018082815260200191505061014060405180830381600087803b1580156108b257600080fd5b505af11580156108c6573d6000803e3d6000fd5b505050506040513d6101408110156108dd57600080fd5b8101908080519060200190929190805190602001909291908051906020019092919080519060200190929190805190602001909291908051906020019092919080519060200190929190805190602001909291908051906020019092919080519060200190929190505050909192939495969798509091929394959697509091929394959650909192939495509091929394509091929350909192509091509050809150506109c283826040805190810160405280600581526020017f6b697474790000000000000000000000000000000000000000000000000000008152506113ce565b505050565b6004818154811015156109d657fe5b9060005260206000209060040201600091509050806000015490806001018054600181600116156101000203166002900480601f016020809104026020016040519081016040528092919081815260200182805460018160011615610100020316600290048015610a885780601f10610a5d57610100808354040283529160200191610a88565b820191906000526020600020905b815481529060010190602001808311610a6b57829003601f168201915b5050505050908060020154908060030160009054906101000a900463ffffffff16908060030160049054906101000a900463ffffffff16908060030160089054906101000a900461ffff169080600301600a9054906101000a900461ffff16905087565b6000610af66111f5565b1515610b0157600080fd5b610b096111cc565b90508073ffffffffffffffffffffffffffffffffffffffff166108fc3073ffffffffffffffffffffffffffffffffffffffff16319081150290604051600060405180830381858888f19350505050158015610b68573d6000803e3d6000fd5b5050565b606080600080600660008673ffffffffffffffffffffffffffffffffffffffff1673ffffffffffffffffffffffffffffffffffffffff16815260200190815260200160002054604051908082528060200260200182016040528015610be05781602001602082028038833980820191505090505b50925060009150600090505b600480549050811015610c93578473ffffffffffffffffffffffffffffffffffffffff166005600083815260200190815260200160002060009054906101000a900473ffffffffffffffffffffffffffffffffffffffff1673ffffffffffffffffffffffffffffffffffffffff161415610c8657808383815181101515610c6f57fe5b906020019060200201818152505081806001019250505b8080600101915050610bec565b829350505050919050565b60096020528060005260406000206000915054906101000a900473ffffffffffffffffffffffffffffffffffffffff1681565b60056020528060005260406000206000915054906101000a900473ffffffffffffffffffffffffffffffffffffffff1681565b606080600080600b80549050604051908082528060200260200182016040528015610d3e5781602001602082028038833980820191505090505b50925060009150600090505b600b80549050811015610df257600073ffffffffffffffffffffffffffffffffffffffff166009600083815260200190815260200160002060009054906101000a900473ffffffffffffffffffffffffffffffffffffffff1673ffffffffffffffffffffffffffffffffffffffff161415610de557808383815181101515610dce57fe5b906020019060200201818152505081806001019250505b8080600101915050610d4a565b829350505050919050565b610e056111f5565b1515610e1057600080fd5b80600860006101000a81548173ffffffffffffffffffffffffffffffffffffffff021916908373ffffffffffffffffffffffffffffffffffffffff16021790555050565b60008060148481600482815481101515610e6a57fe5b906000526020600020906004020160030160009054906101000a900463ffffffff1663ffffffff1610151515610e9f57600080fd5b856005600082815260200190815260200160002060009054906101000a900473ffffffffffffffffffffffffffffffffffffffff1673ffffffffffffffffffffffffffffffffffffffff163373ffffffffffffffffffffffffffffffffffffffff16141515610f0d57600080fd5b600d5434141515610f1d57600080fd5b600487815481101515610f2c57fe5b9060005260206000209060040201945085604051602001808281526020019150506040516020818303038152906040526040518082805190602001908083835b602083101515610f915780518252602082019150602081019050602083039250610f6c565b6001836020036101000a038019825116818451168082178552505050505050905001915050604051809103902060019004935060025484811515610fd157fe5b069350606484811515610fe057fe5b068403935083856002018190555050505050505050565b610fff6111f5565b151561100a57600080fd5b600073ffffffffffffffffffffffffffffffffffffffff166000809054906101000a900473ffffffffffffffffffffffffffffffffffffffff1673ffffffffffffffffffffffffffffffffffffffff167f8be0079c531659141344cd1fd0a4f28419497f9722a3daafe3b4186f6b6457e060405160405180910390a360008060006101000a81548173ffffffffffffffffffffffffffffffffffffffff021916908373ffffffffffffffffffffffffffffffffffffffff160217905550565b60006110d48261167b565b90506064818115156110e257fe5b06810390506110f18282611769565b5050565b600b8181548110151561110457fe5b90600052602060002090600202016000915090508060000154908060010154905082565b6000600b8481548110151561113957fe5b906000526020600020906002020190506111c58582600101546040805190810160405280600681526020017f68756d616e73000000000000000000000000000000000000000000000000000081525086868080601f0160208091040260200160405190810160405280939291908181526020018383808284378201915050505050508560000154611a77565b5050505050565b60008060009054906101000a900473ffffffffffffffffffffffffffffffffffffffff16905090565b60008060009054906101000a900473ffffffffffffffffffffffffffffffffffffffff1673ffffffffffffffffffffffffffffffffffffffff163373ffffffffffffffffffffffffffffffffffffffff1614905090565b600a6020528060005260406000206000915090505481565b60006002848160048281548110151561127957fe5b906000526020600020906004020160030160009054906101000a900463ffffffff1663ffffffff16101515156112ae57600080fd5b856005600082815260200190815260200160002060009054906101000a900473ffffffffffffffffffffffffffffffffffffffff1673ffffffffffffffffffffffffffffffffffffffff163373ffffffffffffffffffffffffffffffffffffffff1614151561131c57600080fd5b600d543414151561132c57600080fd5b60048781548110151561133b57fe5b90600052602060002090600402019350858585600101919061135e929190611f32565b5050505050505050565b6113706111f5565b151561137b57600080fd5b80600c8190555050565b61138d6111f5565b151561139857600080fd5b6113a181611dc9565b50565b60008082840190508363ffffffff168163ffffffff16101515156113c457fe5b8091505092915050565b600080846005600082815260200190815260200160002060009054906101000a900473ffffffffffffffffffffffffffffffffffffffff1673ffffffffffffffffffffffffffffffffffffffff163373ffffffffffffffffffffffffffffffffffffffff1614151561143f57600080fd5b60048681548110151561144e57fe5b9060005260206000209060040201925061146783611ec3565b151561147257600080fd5b6002548581151561147f57fe5b06945060028584600201540181151561149457fe5b04915060405160200180807f6b6974747900000000000000000000000000000000000000000000000000000081525060050190506040516020818303038152906040526040518082805190602001908083835b60208310151561150c57805182526020820191506020810190506020830392506114e7565b6001836020036101000a038019825116818451168082178552505050505050905001915050604051809103902060001916846040516020018082805190602001908083835b6020831015156115765780518252602082019150602081019050602083039250611551565b6001836020036101000a0380198251168184511680821785525050505050509050019150506040516020818303038152906040526040518082805190602001908083835b6020831015156115df57805182526020820191506020810190506020830392506115ba565b6001836020036101000a038019825116818451168082178552505050505050905001915050604051809103902060001916141561162b57606360648381151561162457fe5b0683030191505b61166a6040805190810160405280600681526020017f4e6f4e616d65000000000000000000000000000000000000000000000000000081525083611769565b61167383611eea565b505050505050565b600080826040516020018082805190602001908083835b6020831015156116b75780518252602082019150602081019050602083039250611692565b6001836020036101000a0380198251168184511680821785525050505050509050019150506040516020818303038152906040526040518082805190602001908083835b60208310151561172057805182526020820191506020810190506020830392506116fb565b6001836020036101000a03801982511681845116808217855250505050505090500191505060405180910390206001900490506002548181151561176057fe5b06915050919050565b6000806001600460e06040519081016040528060008152602001878152602001868152602001600163ffffffff168152602001600354420163ffffffff168152602001600061ffff168152602001600061ffff1681525090806001815401808255809150509060018203906000526020600020906004020160009091929091909150600082015181600001556020820151816001019080519060200190611811929190611fb2565b506040820151816002015560608201518160030160006101000a81548163ffffffff021916908363ffffffff16021790555060808201518160030160046101000a81548163ffffffff021916908363ffffffff16021790555060a08201518160030160086101000a81548161ffff021916908361ffff16021790555060c082015181600301600a6101000a81548161ffff021916908361ffff1602179055505050039150336005600084815260200190815260200160002060006101000a81548173ffffffffffffffffffffffffffffffffffffffff021916908373ffffffffffffffffffffffffffffffffffffffff16021790555061195a6001600660003373ffffffffffffffffffffffffffffffffffffffff1673ffffffffffffffffffffffffffffffffffffffff16815260200190815260200160002054611f1490919063ffffffff16565b600660003373ffffffffffffffffffffffffffffffffffffffff1673ffffffffffffffffffffffffffffffffffffffff168152602001908152602001600020819055506004828154811015156119ac57fe5b906000526020600020906004020190508181600001819055507f88f026aacbbecc90c18411df4b1185fd8d9be2470f1962f192bf84a27d0704b78285856040518084815260200180602001838152602001828103825284818151815260200191508051906020019080838360005b83811015611a35578082015181840152602081019050611a1a565b50505050905090810190601f168015611a625780820380516001836020036101000a031916815260200191505b5094505050505060405180910390a150505050565b600080866005600082815260200190815260200160002060009054906101000a900473ffffffffffffffffffffffffffffffffffffffff1673ffffffffffffffffffffffffffffffffffffffff163373ffffffffffffffffffffffffffffffffffffffff16141515611ae857600080fd5b600488815481101515611af757fe5b90600052602060002090600402019250611b1083611ec3565b1515611b1b57600080fd5b600287846002015401811515611b2d57fe5b04915060405160200180807f68756d616e73000000000000000000000000000000000000000000000000000081525060060190506040516020818303038152906040526040518082805190602001908083835b602083101515611ba55780518252602082019150602081019050602083039250611b80565b6001836020036101000a038019825116818451168082178552505050505050905001915050604051809103902060001916866040516020018082805190602001908083835b602083101515611c0f5780518252602082019150602081019050602083039250611bea565b6001836020036101000a0380198251168184511680821785525050505050509050019150506040516020818303038152906040526040518082805190602001908083835b602083101515611c785780518252602082019150602081019050602083039250611c53565b6001836020036101000a0380198251168184511680821785525050505050509050019150506040518091039020600019161415611cc4576063606483811515611cbd57fe5b0683030191505b611cce8583611769565b336009600086815260200190815260200160002060006101000a81548173ffffffffffffffffffffffffffffffffffffffff021916908373ffffffffffffffffffffffffffffffffffffffff160217905550611d736001600a60003373ffffffffffffffffffffffffffffffffffffffff1673ffffffffffffffffffffffffffffffffffffffff16815260200190815260200160002054611f1490919063ffffffff16565b600a60003373ffffffffffffffffffffffffffffffffffffffff1673ffffffffffffffffffffffffffffffffffffffff16815260200190815260200160002081905550611dbf83611eea565b5050505050505050565b600073ffffffffffffffffffffffffffffffffffffffff168173ffffffffffffffffffffffffffffffffffffffff1614151515611e0557600080fd5b8073ffffffffffffffffffffffffffffffffffffffff166000809054906101000a900473ffffffffffffffffffffffffffffffffffffffff1673ffffffffffffffffffffffffffffffffffffffff167f8be0079c531659141344cd1fd0a4f28419497f9722a3daafe3b4186f6b6457e060405160405180910390a3806000806101000a81548173ffffffffffffffffffffffffffffffffffffffff021916908373ffffffffffffffffffffffffffffffffffffffff16021790555050565b6000428260030160049054906101000a900463ffffffff1663ffffffff1611159050919050565b60035442018160030160046101000a81548163ffffffff021916908363ffffffff16021790555050565b6000808284019050838110151515611f2857fe5b8091505092915050565b828054600181600116156101000203166002900490600052602060002090601f016020900481019282601f10611f7357803560ff1916838001178555611fa1565b82800160010185558215611fa1579182015b82811115611fa0578235825591602001919060010190611f85565b5b509050611fae9190612032565b5090565b828054600181600116156101000203166002900490600052602060002090601f016020900481019282601f10611ff357805160ff1916838001178555612021565b82800160010185558215612021579182015b82811115612020578251825591602001919060010190612005565b5b50905061202e9190612032565b5090565b61205491905b80821115612050576000816000905550600101612038565b5090565b905600a165627a7a72305820aba95e1db3d77c5151340240d8c392b0fe53bd30f94eda622383fc8a1a17f8820029",
  "source": "pragma solidity ^0.4.25;\n\nimport \"./zombiefeeding.sol\";\n\ncontract ZombieHelper is ZombieFeeding {\n\n  uint levelUpFee = 0.001 ether;\n  uint nameFee = 0.001 ether;\n\n  modifier aboveLevel(uint _level, uint _zombieId) {\n    require(zombies[_zombieId].level >= _level);\n    _;\n  }\n\n  function withdraw() external onlyOwner {\n    address _owner = owner();\n    _owner.transfer(address(this).balance);\n  }\n\n  function setLevelUpFee(uint _fee) external onlyOwner {\n    levelUpFee = _fee;\n  }\n\n  function levelUp(uint _zombieId) external payable {\n    require(msg.value == levelUpFee);\n    zombies[_zombieId].level = zombies[_zombieId].level.add(1);\n  }\n\n  function changeName(uint _zombieId, string _newName) external aboveLevel(2, _zombieId) onlyOwnerOf(_zombieId) payable {\n    require(msg.value == nameFee);\n    Zombie storage myZombie = zombies[_zombieId];\n    myZombie.name = _newName;\n  }\n\n  function changeDna(uint _zombieId, uint _newDna) external aboveLevel(20, _zombieId) onlyOwnerOf(_zombieId) payable {\n    \n    require(msg.value == nameFee);\n    Zombie storage myZombie = zombies[_zombieId];\n    uint rand = uint(keccak256(abi.encodePacked(_newDna)));\n    rand = rand % dnaModulus;\n    rand = rand - rand % 100;\n    myZombie.dna = rand;\n  }\n\n  function getZombiesByOwner(address _owner) external view returns(uint[]) {\n    uint[] memory result = new uint[](ownerZombieCount[_owner]);\n    uint counter = 0;\n    for (uint i = 0; i < zombies.length; i++) {\n      if (zombieToOwner[i] == _owner) {\n        result[counter] = i;\n        counter++;\n      }\n    }\n    return result;\n  }\n  function getAllHumans(address _owner) external view returns(uint[]){\n    uint[] memory result = new uint[](humans.length);\n    uint counter =0;\n    for (uint i = 0; i < humans.length; i++) {\n      if (humanToZombie[i] == address(0x0)){\n        result[counter] = i;\n        counter++;\n     }\n    }\n    return result;\n  }\n\n}\n",
  "sourcePath": "/Users/naveenyalla/Downloads/Cryptozombie demo package/contracts/zombiehelper.sol",
  "compiler": {
    "name": "solc",
    "version": "0.4.25+commit.59dbf8f1.Emscripten.clang"
  },
  "schemaVersion": "3.4.6",
  "updatedAt": "2022-03-19T06:37:12.234Z",
  "devdoc": {
    "methods": {
      "isOwner()": {
        "return": "true if `msg.sender` is the owner of the contract."
      },
      "owner()": {
        "return": "the address of the owner."
      },
      "renounceOwnership()": {
        "details": "Allows the current owner to relinquish control of the contract."
      },
      "transferOwnership(address)": {
        "details": "Allows the current owner to transfer control of the contract to a newOwner.",
        "params": {
          "newOwner": "The address to transfer ownership to."
        }
      }
    }
  },
  "userdoc": {
    "methods": {
      "renounceOwnership()": {
        "notice": "Renouncing to ownership will leave the contract without an owner. It will not be possible to call the functions with the `onlyOwner` modifier anymore."
      }
    }
  }
}