{
  "contractName": "ZombieHelper",
  "abi": [
    {
      "constant": false,
      "inputs": [
        {
          "name": "_zombieId",
          "type": "uint256"
        },
        {
          "name": "_kittyId",
          "type": "uint256"
        }
      ],
      "name": "feedOnKitty",
      "outputs": [],
      "payable": false,
      "stateMutability": "nonpayable",
      "type": "function"
    },
    {
      "constant": true,
      "inputs": [
        {
          "name": "",
          "type": "uint256"
        }
      ],
      "name": "zombies",
      "outputs": [
        {
          "name": "id",
          "type": "uint256"
        },
        {
          "name": "name",
          "type": "string"
        },
        {
          "name": "dna",
          "type": "uint256"
        },
        {
          "name": "level",
          "type": "uint32"
        },
        {
          "name": "readyTime",
          "type": "uint32"
        },
        {
          "name": "winCount",
          "type": "uint16"
        },
        {
          "name": "lossCount",
          "type": "uint16"
        }
      ],
      "payable": false,
      "stateMutability": "view",
      "type": "function"
    },
    {
      "constant": true,
      "inputs": [
        {
          "name": "",
          "type": "uint256"
        }
      ],
      "name": "humanToZombie",
      "outputs": [
        {
          "name": "",
          "type": "address"
        }
      ],
      "payable": false,
      "stateMutability": "view",
      "type": "function"
    },
    {
      "constant": true,
      "inputs": [
        {
          "name": "",
          "type": "uint256"
        }
      ],
      "name": "zombieToOwner",
      "outputs": [
        {
          "name": "",
          "type": "address"
        }
      ],
      "payable": false,
      "stateMutability": "view",
      "type": "function"
    },
    {
      "constant": false,
      "inputs": [
        {
          "name": "_address",
          "type": "address"
        }
      ],
      "name": "setKittyContractAddress",
      "outputs": [],
      "payable": false,
      "stateMutability": "nonpayable",
      "type": "function"
    },
    {
      "constant": true,
      "inputs": [],
      "name": "humanZombiecount",
      "outputs": [
        {
          "name": "",
          "type": "uint256"
        }
      ],
      "payable": false,
      "stateMutability": "view",
      "type": "function"
    },
    {
      "constant": false,
      "inputs": [],
      "name": "renounceOwnership",
      "outputs": [],
      "payable": false,
      "stateMutability": "nonpayable",
      "type": "function"
    },
    {
      "constant": false,
      "inputs": [
        {
          "name": "_name",
          "type": "string"
        }
      ],
      "name": "createRandomZombie",
      "outputs": [],
      "payable": false,
      "stateMutability": "nonpayable",
      "type": "function"
    },
    {
      "constant": true,
      "inputs": [
        {
          "name": "",
          "type": "uint256"
        }
      ],
      "name": "humans",
      "outputs": [
        {
          "name": "name",
          "type": "uint256"
        },
        {
          "name": "dna",
          "type": "uint256"
        }
      ],
      "payable": false,
      "stateMutability": "view",
      "type": "function"
    },
    {
      "constant": false,
      "inputs": [
        {
          "name": "_zombieId",
          "type": "uint256"
        },
        {
          "name": "_humanId",
          "type": "uint256"
        },
        {
          "name": "name",
          "type": "string"
        }
      ],
      "name": "feedOnHumans",
      "outputs": [],
      "payable": true,
      "stateMutability": "payable",
      "type": "function"
    },
    {
      "constant": true,
      "inputs": [],
      "name": "owner",
      "outputs": [
        {
          "name": "",
          "type": "address"
        }
      ],
      "payable": false,
      "stateMutability": "view",
      "type": "function"
    },
    {
      "constant": true,
      "inputs": [],
      "name": "isOwner",
      "outputs": [
        {
          "name": "",
          "type": "bool"
        }
      ],
      "payable": false,
      "stateMutability": "view",
      "type": "function"
    },
    {
      "constant": false,
      "inputs": [
        {
          "name": "newOwner",
          "type": "address"
        }
      ],
      "name": "transferOwnership",
      "outputs": [],
      "payable": false,
      "stateMutability": "nonpayable",
      "type": "function"
    },
    {
      "anonymous": false,
      "inputs": [
        {
          "indexed": false,
          "name": "zombieId",
          "type": "uint256"
        },
        {
          "indexed": false,
          "name": "name",
          "type": "string"
        },
        {
          "indexed": false,
          "name": "dna",
          "type": "uint256"
        }
      ],
      "name": "NewZombie",
      "type": "event"
    },
    {
      "anonymous": false,
      "inputs": [
        {
          "indexed": true,
          "name": "previousOwner",
          "type": "address"
        },
        {
          "indexed": true,
          "name": "newOwner",
          "type": "address"
        }
      ],
      "name": "OwnershipTransferred",
      "type": "event"
    },
    {
      "constant": false,
      "inputs": [],
      "name": "withdraw",
      "outputs": [],
      "payable": false,
      "stateMutability": "nonpayable",
      "type": "function"
    },
    {
      "constant": false,
      "inputs": [
        {
          "name": "_fee",
          "type": "uint256"
        }
      ],
      "name": "setLevelUpFee",
      "outputs": [],
      "payable": false,
      "stateMutability": "nonpayable",
      "type": "function"
    },
    {
      "constant": false,
      "inputs": [
        {
          "name": "_zombieId",
          "type": "uint256"
        }
      ],
      "name": "levelUp",
      "outputs": [],
      "payable": true,
      "stateMutability": "payable",
      "type": "function"
    },
    {
      "constant": false,
      "inputs": [
        {
          "name": "_zombieId",
          "type": "uint256"
        },
        {
          "name": "_newName",
          "type": "string"
        }
      ],
      "name": "changeName",
      "outputs": [],
      "payable": true,
      "stateMutability": "payable",
      "type": "function"
    },
    {
      "constant": false,
      "inputs": [
        {
          "name": "_zombieId",
          "type": "uint256"
        },
        {
          "name": "_newDna",
          "type": "uint256"
        }
      ],
      "name": "changeDna",
      "outputs": [],
      "payable": true,
      "stateMutability": "payable",
      "type": "function"
    },
    {
      "constant": true,
      "inputs": [
        {
          "name": "_owner",
          "type": "address"
        }
      ],
      "name": "getZombiesByOwner",
      "outputs": [
        {
          "name": "",
          "type": "uint256[]"
        }
      ],
      "payable": false,
      "stateMutability": "view",
      "type": "function"
    },
    {
      "constant": true,
      "inputs": [
        {
          "name": "_owner",
          "type": "address"
        }
      ],
      "name": "getAllHumans",
      "outputs": [
        {
          "name": "",
          "type": "uint256[]"
        }
      ],
      "payable": false,
      "stateMutability": "view",
      "type": "function"
    }
  ],
  "bytecode": "0x60806040526010600155600154600a0a6002556201518060035566038d7ea4c68000600755600a805566038d7ea4c68000600c5566038d7ea4c68000600d55600080336000806101000a81548173ffffffffffffffffffffffffffffffffffffffff021916908373ffffffffffffffffffffffffffffffffffffffff1602179055506000809054906101000a900473ffffffffffffffffffffffffffffffffffffffff1673ffffffffffffffffffffffffffffffffffffffff16600073ffffffffffffffffffffffffffffffffffffffff167f8be0079c531659141344cd1fd0a4f28419497f9722a3daafe3b4186f6b6457e060405160405180910390a3600091505b600a82101561020b5781604051602001808281526020019150506040516020818303038152906040526040518082805190602001908083835b602083101515610160578051825260208201915060208101905060208303925061013b565b6001836020036101000a0380198251168184511680821785525050505050509050019150506040518091039020600190049050600b6040805190810160405280848152602001662386f26fc10000848115156101b857fe5b068152509080600181540180825580915050906001820390600052602060002090600202016000909192909190915060008201518160000155602082015181600101555050508180600101925050610102565b5050611f798061021c6000396000f300608060405260043610610112576000357c0100000000000000000000000000000000000000000000000000000000900463ffffffff1680630ce90ec21461011757806317a7f4cc146101375780632052465e1461016e5780633ccfd60b146102665780634412e1041461027d5780635141eb3a14610315578063528b7b8f146103825780635bf5f06a146103ef5780635f4623f1146104875780635faf2880146104ca57806370afba5c146104f4578063715018a61461051f5780637bff0a01146105365780638102fced1461059f5780638d8fd597146105e75780638da5cb5b146106295780638f32d59b14610680578063c39cbef1146106af578063ccf670f8146106e7578063f2fde38b14610714575b600080fd5b61013560048036038101908080359060200190929190505050610757565b005b34801561014357600080fd5b5061016c60048036038101908080359060200190929190803590602001909291905050506107f2565b005b34801561017a57600080fd5b506101996004803603810190808035906020019092919050505061099b565b60405180888152602001806020018781526020018663ffffffff1663ffffffff1681526020018563ffffffff1663ffffffff1681526020018461ffff1661ffff1681526020018361ffff1661ffff168152602001828103825288818151815260200191508051906020019080838360005b8381101561022557808201518184015260208101905061020a565b50505050905090810190601f1680156102525780820380516001836020036101000a031916815260200191505b509850505050505050505060405180910390f35b34801561027257600080fd5b5061027b610ac0565b005b34801561028957600080fd5b506102be600480360381019080803573ffffffffffffffffffffffffffffffffffffffff169060200190929190505050610b40565b6040518080602001828103825283818151815260200191508051906020019060200280838360005b838110156103015780820151818401526020810190506102e6565b505050509050019250505060405180910390f35b34801561032157600080fd5b5061034060048036038101908080359060200190929190505050610c72565b604051808273ffffffffffffffffffffffffffffffffffffffff1673ffffffffffffffffffffffffffffffffffffffff16815260200191505060405180910390f35b34801561038e57600080fd5b506103ad60048036038101908080359060200190929190505050610ca5565b604051808273ffffffffffffffffffffffffffffffffffffffff1673ffffffffffffffffffffffffffffffffffffffff16815260200191505060405180910390f35b3480156103fb57600080fd5b50610430600480360381019080803573ffffffffffffffffffffffffffffffffffffffff169060200190929190505050610cd8565b6040518080602001828103825283818151815260200191508051906020019060200280838360005b83811015610473578082015181840152602081019050610458565b505050509050019250505060405180910390f35b34801561049357600080fd5b506104c8600480360381019080803573ffffffffffffffffffffffffffffffffffffffff169060200190929190505050610dce565b005b6104f26004803603810190808035906020019092919080359060200190929190505050610e25565b005b34801561050057600080fd5b50610509610fc8565b6040518082815260200191505060405180910390f35b34801561052b57600080fd5b50610534610fce565b005b34801561054257600080fd5b5061059d600480360381019080803590602001908201803590602001908080601f01602080910402602001604051908101604052809392919081815260200183838082843782019150505050505091929192905050506110a0565b005b3480156105ab57600080fd5b506105ca600480360381019080803590602001909291905050506110cc565b604051808381526020018281526020019250505060405180910390f35b61062760048036038101908080359060200190929190803590602001909291908035906020019082018035906020019190919293919293905050506110ff565b005b34801561063557600080fd5b5061063e6111b3565b604051808273ffffffffffffffffffffffffffffffffffffffff1673ffffffffffffffffffffffffffffffffffffffff16815260200191505060405180910390f35b34801561068c57600080fd5b506106956111dc565b604051808215151515815260200191505060405180910390f35b6106e560048036038101908080359060200190929190803590602001908201803590602001919091929391929390505050611233565b005b3480156106f357600080fd5b5061071260048036038101908080359060200190929190505050611337565b005b34801561072057600080fd5b50610755600480360381019080803573ffffffffffffffffffffffffffffffffffffffff169060200190929190505050611354565b005b600c543414151561076757600080fd5b6107b1600160048381548110151561077b57fe5b906000526020600020906004020160030160009054906101000a900463ffffffff1663ffffffff1661137390919063ffffffff16565b6004828154811015156107c057fe5b906000526020600020906004020160030160006101000a81548163ffffffff021916908363ffffffff16021790555050565b6000600860009054906101000a900473ffffffffffffffffffffffffffffffffffffffff1673ffffffffffffffffffffffffffffffffffffffff1663e98b7f4d836040518263ffffffff167c01000000000000000000000000000000000000000000000000000000000281526004018082815260200191505061014060405180830381600087803b15801561088657600080fd5b505af115801561089a573d6000803e3d6000fd5b505050506040513d6101408110156108b157600080fd5b81019080805190602001909291908051906020019092919080519060200190929190805190602001909291908051906020019092919080519060200190929190805190602001909291908051906020019092919080519060200190929190805190602001909291905050509091929394959697985090919293949596975090919293949596509091929394955090919293945090919293509091925090915090508091505061099683826040805190810160405280600581526020017f6b6974747900000000000000000000000000000000000000000000000000000081525061139d565b505050565b6004818154811015156109aa57fe5b9060005260206000209060040201600091509050806000015490806001018054600181600116156101000203166002900480601f016020809104026020016040519081016040528092919081815260200182805460018160011615610100020316600290048015610a5c5780601f10610a3157610100808354040283529160200191610a5c565b820191906000526020600020905b815481529060010190602001808311610a3f57829003601f168201915b5050505050908060020154908060030160009054906101000a900463ffffffff16908060030160049054906101000a900463ffffffff16908060030160089054906101000a900461ffff169080600301600a9054906101000a900461ffff16905087565b6000610aca6111dc565b1515610ad557600080fd5b610add6111b3565b90508073ffffffffffffffffffffffffffffffffffffffff166108fc3073ffffffffffffffffffffffffffffffffffffffff16319081150290604051600060405180830381858888f19350505050158015610b3c573d6000803e3d6000fd5b5050565b606080600080600660008673ffffffffffffffffffffffffffffffffffffffff1673ffffffffffffffffffffffffffffffffffffffff16815260200190815260200160002054604051908082528060200260200182016040528015610bb45781602001602082028038833980820191505090505b50925060009150600090505b600480549050811015610c67578473ffffffffffffffffffffffffffffffffffffffff166005600083815260200190815260200160002060009054906101000a900473ffffffffffffffffffffffffffffffffffffffff1673ffffffffffffffffffffffffffffffffffffffff161415610c5a57808383815181101515610c4357fe5b906020019060200201818152505081806001019250505b8080600101915050610bc0565b829350505050919050565b60096020528060005260406000206000915054906101000a900473ffffffffffffffffffffffffffffffffffffffff1681565b60056020528060005260406000206000915054906101000a900473ffffffffffffffffffffffffffffffffffffffff1681565b606080600080600a54604051908082528060200260200182016040528015610d0f5781602001602082028038833980820191505090505b50925060009150600090505b600b80549050811015610dc357600073ffffffffffffffffffffffffffffffffffffffff166009600083815260200190815260200160002060009054906101000a900473ffffffffffffffffffffffffffffffffffffffff1673ffffffffffffffffffffffffffffffffffffffff161415610db657808383815181101515610d9f57fe5b906020019060200201818152505081806001019250505b8080600101915050610d1b565b829350505050919050565b610dd66111dc565b1515610de157600080fd5b80600860006101000a81548173ffffffffffffffffffffffffffffffffffffffff021916908373ffffffffffffffffffffffffffffffffffffffff16021790555050565b60008060148481600482815481101515610e3b57fe5b906000526020600020906004020160030160009054906101000a900463ffffffff1663ffffffff1610151515610e7057600080fd5b856005600082815260200190815260200160002060009054906101000a900473ffffffffffffffffffffffffffffffffffffffff1673ffffffffffffffffffffffffffffffffffffffff163373ffffffffffffffffffffffffffffffffffffffff16141515610ede57600080fd5b600d5434141515610eee57600080fd5b600487815481101515610efd57fe5b9060005260206000209060040201945085604051602001808281526020019150506040516020818303038152906040526040518082805190602001908083835b602083101515610f625780518252602082019150602081019050602083039250610f3d565b6001836020036101000a038019825116818451168082178552505050505050905001915050604051809103902060019004935060025484811515610fa257fe5b069350606484811515610fb157fe5b068403935083856002018190555050505050505050565b600a5481565b610fd66111dc565b1515610fe157600080fd5b600073ffffffffffffffffffffffffffffffffffffffff166000809054906101000a900473ffffffffffffffffffffffffffffffffffffffff1673ffffffffffffffffffffffffffffffffffffffff167f8be0079c531659141344cd1fd0a4f28419497f9722a3daafe3b4186f6b6457e060405160405180910390a360008060006101000a81548173ffffffffffffffffffffffffffffffffffffffff021916908373ffffffffffffffffffffffffffffffffffffffff160217905550565b60006110ab82611636565b90506064818115156110b957fe5b06810390506110c88282611724565b5050565b600b818154811015156110db57fe5b90600052602060002090600202016000915090508060000154908060010154905082565b60006007543414151561111157600080fd5b600b8481548110151561112057fe5b906000526020600020906002020190506111ac8582600101546040805190810160405280600681526020017f68756d616e73000000000000000000000000000000000000000000000000000081525086868080601f0160208091040260200160405190810160405280939291908181526020018383808284378201915050505050508560000154611a32565b5050505050565b60008060009054906101000a900473ffffffffffffffffffffffffffffffffffffffff16905090565b60008060009054906101000a900473ffffffffffffffffffffffffffffffffffffffff1673ffffffffffffffffffffffffffffffffffffffff163373ffffffffffffffffffffffffffffffffffffffff1614905090565b60006002848160048281548110151561124857fe5b906000526020600020906004020160030160009054906101000a900463ffffffff1663ffffffff161015151561127d57600080fd5b856005600082815260200190815260200160002060009054906101000a900473ffffffffffffffffffffffffffffffffffffffff1673ffffffffffffffffffffffffffffffffffffffff163373ffffffffffffffffffffffffffffffffffffffff161415156112eb57600080fd5b600d54341415156112fb57600080fd5b60048781548110151561130a57fe5b90600052602060002090600402019350858585600101919061132d929190611e28565b5050505050505050565b61133f6111dc565b151561134a57600080fd5b80600c8190555050565b61135c6111dc565b151561136757600080fd5b61137081611ce6565b50565b60008082840190508363ffffffff168163ffffffff161015151561139357fe5b8091505092915050565b600080846005600082815260200190815260200160002060009054906101000a900473ffffffffffffffffffffffffffffffffffffffff1673ffffffffffffffffffffffffffffffffffffffff163373ffffffffffffffffffffffffffffffffffffffff1614151561140e57600080fd5b60048681548110151561141d57fe5b906000526020600020906004020192506002548581151561143a57fe5b06945060028584600201540181151561144f57fe5b04915060405160200180807f6b6974747900000000000000000000000000000000000000000000000000000081525060050190506040516020818303038152906040526040518082805190602001908083835b6020831015156114c757805182526020820191506020810190506020830392506114a2565b6001836020036101000a038019825116818451168082178552505050505050905001915050604051809103902060001916846040516020018082805190602001908083835b602083101515611531578051825260208201915060208101905060208303925061150c565b6001836020036101000a0380198251168184511680821785525050505050509050019150506040516020818303038152906040526040518082805190602001908083835b60208310151561159a5780518252602082019150602081019050602083039250611575565b6001836020036101000a03801982511681845116808217855250505050505090500191505060405180910390206000191614156115e65760636064838115156115df57fe5b0683030191505b6116256040805190810160405280600681526020017f4e6f4e616d65000000000000000000000000000000000000000000000000000081525083611724565b61162e83611de0565b505050505050565b600080826040516020018082805190602001908083835b602083101515611672578051825260208201915060208101905060208303925061164d565b6001836020036101000a0380198251168184511680821785525050505050509050019150506040516020818303038152906040526040518082805190602001908083835b6020831015156116db57805182526020820191506020810190506020830392506116b6565b6001836020036101000a03801982511681845116808217855250505050505090500191505060405180910390206001900490506002548181151561171b57fe5b06915050919050565b6000806001600460e06040519081016040528060008152602001878152602001868152602001600163ffffffff168152602001600354420163ffffffff168152602001600061ffff168152602001600061ffff16815250908060018154018082558091505090600182039060005260206000209060040201600090919290919091506000820151816000015560208201518160010190805190602001906117cc929190611ea8565b506040820151816002015560608201518160030160006101000a81548163ffffffff021916908363ffffffff16021790555060808201518160030160046101000a81548163ffffffff021916908363ffffffff16021790555060a08201518160030160086101000a81548161ffff021916908361ffff16021790555060c082015181600301600a6101000a81548161ffff021916908361ffff1602179055505050039150336005600084815260200190815260200160002060006101000a81548173ffffffffffffffffffffffffffffffffffffffff021916908373ffffffffffffffffffffffffffffffffffffffff1602179055506119156001600660003373ffffffffffffffffffffffffffffffffffffffff1673ffffffffffffffffffffffffffffffffffffffff16815260200190815260200160002054611e0a90919063ffffffff16565b600660003373ffffffffffffffffffffffffffffffffffffffff1673ffffffffffffffffffffffffffffffffffffffff1681526020019081526020016000208190555060048281548110151561196757fe5b906000526020600020906004020190508181600001819055507f88f026aacbbecc90c18411df4b1185fd8d9be2470f1962f192bf84a27d0704b78285856040518084815260200180602001838152602001828103825284818151815260200191508051906020019080838360005b838110156119f05780820151818401526020810190506119d5565b50505050905090810190601f168015611a1d5780820380516001836020036101000a031916815260200191505b5094505050505060405180910390a150505050565b600080866005600082815260200190815260200160002060009054906101000a900473ffffffffffffffffffffffffffffffffffffffff1673ffffffffffffffffffffffffffffffffffffffff163373ffffffffffffffffffffffffffffffffffffffff16141515611aa357600080fd5b600488815481101515611ab257fe5b90600052602060002090600402019250600287846002015401811515611ad457fe5b04915060405160200180807f68756d616e73000000000000000000000000000000000000000000000000000081525060060190506040516020818303038152906040526040518082805190602001908083835b602083101515611b4c5780518252602082019150602081019050602083039250611b27565b6001836020036101000a038019825116818451168082178552505050505050905001915050604051809103902060001916866040516020018082805190602001908083835b602083101515611bb65780518252602082019150602081019050602083039250611b91565b6001836020036101000a0380198251168184511680821785525050505050509050019150506040516020818303038152906040526040518082805190602001908083835b602083101515611c1f5780518252602082019150602081019050602083039250611bfa565b6001836020036101000a0380198251168184511680821785525050505050509050019150506040518091039020600019161415611c6b576063606483811515611c6457fe5b0683030191505b611c758583611724565b336009600086815260200190815260200160002060006101000a81548173ffffffffffffffffffffffffffffffffffffffff021916908373ffffffffffffffffffffffffffffffffffffffff1602179055506001600a5403600a81905550611cdc83611de0565b5050505050505050565b600073ffffffffffffffffffffffffffffffffffffffff168173ffffffffffffffffffffffffffffffffffffffff1614151515611d2257600080fd5b8073ffffffffffffffffffffffffffffffffffffffff166000809054906101000a900473ffffffffffffffffffffffffffffffffffffffff1673ffffffffffffffffffffffffffffffffffffffff167f8be0079c531659141344cd1fd0a4f28419497f9722a3daafe3b4186f6b6457e060405160405180910390a3806000806101000a81548173ffffffffffffffffffffffffffffffffffffffff021916908373ffffffffffffffffffffffffffffffffffffffff16021790555050565b60035442018160030160046101000a81548163ffffffff021916908363ffffffff16021790555050565b6000808284019050838110151515611e1e57fe5b8091505092915050565b828054600181600116156101000203166002900490600052602060002090601f016020900481019282601f10611e6957803560ff1916838001178555611e97565b82800160010185558215611e97579182015b82811115611e96578235825591602001919060010190611e7b565b5b509050611ea49190611f28565b5090565b828054600181600116156101000203166002900490600052602060002090601f016020900481019282601f10611ee957805160ff1916838001178555611f17565b82800160010185558215611f17579182015b82811115611f16578251825591602001919060010190611efb565b5b509050611f249190611f28565b5090565b611f4a91905b80821115611f46576000816000905550600101611f2e565b5090565b905600a165627a7a72305820e075a3616b376ee49a743949e7d55025b764e99b5b9452a9980916918bb3d90b0029",
  "source": "pragma solidity ^0.4.25;\n\nimport \"./zombiefeeding.sol\";\n\ncontract ZombieHelper is ZombieFeeding {\n\n  uint levelUpFee = 0.001 ether;\n  uint nameFee = 0.001 ether;\n\n  modifier aboveLevel(uint _level, uint _zombieId) {\n    require(zombies[_zombieId].level >= _level);\n    _;\n  }\n\n  function withdraw() external onlyOwner {\n    address _owner = owner();\n    _owner.transfer(address(this).balance);\n  }\n\n  function setLevelUpFee(uint _fee) external onlyOwner {\n    levelUpFee = _fee;\n  }\n\n  function levelUp(uint _zombieId) external payable {\n    require(msg.value == levelUpFee);\n    zombies[_zombieId].level = zombies[_zombieId].level.add(1);\n  }\n\n  function changeName(uint _zombieId, string _newName) external aboveLevel(2, _zombieId) onlyOwnerOf(_zombieId) payable {\n    require(msg.value == nameFee);\n    Zombie storage myZombie = zombies[_zombieId];\n    myZombie.name = _newName;\n  }\n\n  function changeDna(uint _zombieId, uint _newDna) external aboveLevel(20, _zombieId) onlyOwnerOf(_zombieId) payable {\n    \n    require(msg.value == nameFee);\n    Zombie storage myZombie = zombies[_zombieId];\n    uint rand = uint(keccak256(abi.encodePacked(_newDna)));\n    rand = rand % dnaModulus;\n    rand = rand - rand % 100;\n    myZombie.dna = rand;\n  }\n\n  function getZombiesByOwner(address _owner) external view returns(uint[]) {\n    uint[] memory result = new uint[](ownerZombieCount[_owner]);\n    uint counter = 0;\n    for (uint i = 0; i < zombies.length; i++) {\n      if (zombieToOwner[i] == _owner) {\n        result[counter] = i;\n        counter++;\n      }\n    }\n    return result;\n  }\n  function getAllHumans(address _owner) external view returns(uint[]){\n    uint[] memory result = new uint[](humanZombiecount);\n    uint counter =0;\n    for (uint i = 0; i < humans.length; i++) {\n      if (humanToZombie[i] == address(0x0)){\n        result[counter] = i;\n        counter++;\n     }\n    }\n    return result;\n  }\n\n}\n",
  "sourcePath": "/Users/naveenyalla/Downloads/Cryptozombie demo package/contracts/zombiehelper.sol",
  "compiler": {
    "name": "solc",
    "version": "0.4.25+commit.59dbf8f1.Emscripten.clang"
  },
  "schemaVersion": "3.4.6",
  "updatedAt": "2022-03-25T07:31:23.755Z",
  "networkType": "ethereum",
  "devdoc": {
    "methods": {
      "isOwner()": {
        "return": "true if `msg.sender` is the owner of the contract."
      },
      "owner()": {
        "return": "the address of the owner."
      },
      "renounceOwnership()": {
        "details": "Allows the current owner to relinquish control of the contract."
      },
      "transferOwnership(address)": {
        "details": "Allows the current owner to transfer control of the contract to a newOwner.",
        "params": {
          "newOwner": "The address to transfer ownership to."
        }
      }
    }
  },
  "userdoc": {
    "methods": {
      "renounceOwnership()": {
        "notice": "Renouncing to ownership will leave the contract without an owner. It will not be possible to call the functions with the `onlyOwner` modifier anymore."
      }
    }
  }
}