{
  "contractName": "ZombieAttack",
  "abi": [
    {
      "constant": false,
      "inputs": [
        {
          "name": "_zombieId",
          "type": "uint256"
        }
      ],
      "name": "levelUp",
      "outputs": [],
      "payable": true,
      "stateMutability": "payable",
      "type": "function"
    },
    {
      "constant": false,
      "inputs": [
        {
          "name": "_zombieId",
          "type": "uint256"
        },
        {
          "name": "_kittyId",
          "type": "uint256"
        }
      ],
      "name": "feedOnKitty",
      "outputs": [],
      "payable": false,
      "stateMutability": "nonpayable",
      "type": "function"
    },
    {
      "constant": true,
      "inputs": [
        {
          "name": "",
          "type": "uint256"
        }
      ],
      "name": "zombies",
      "outputs": [
        {
          "name": "id",
          "type": "uint256"
        },
        {
          "name": "name",
          "type": "string"
        },
        {
          "name": "dna",
          "type": "uint256"
        },
        {
          "name": "level",
          "type": "uint32"
        },
        {
          "name": "readyTime",
          "type": "uint32"
        },
        {
          "name": "winCount",
          "type": "uint16"
        },
        {
          "name": "lossCount",
          "type": "uint16"
        }
      ],
      "payable": false,
      "stateMutability": "view",
      "type": "function"
    },
    {
      "constant": false,
      "inputs": [],
      "name": "withdraw",
      "outputs": [],
      "payable": false,
      "stateMutability": "nonpayable",
      "type": "function"
    },
    {
      "constant": true,
      "inputs": [
        {
          "name": "_owner",
          "type": "address"
        }
      ],
      "name": "getZombiesByOwner",
      "outputs": [
        {
          "name": "",
          "type": "uint256[]"
        }
      ],
      "payable": false,
      "stateMutability": "view",
      "type": "function"
    },
    {
      "constant": true,
      "inputs": [
        {
          "name": "",
          "type": "uint256"
        }
      ],
      "name": "humanToZombie",
      "outputs": [
        {
          "name": "",
          "type": "address"
        }
      ],
      "payable": false,
      "stateMutability": "view",
      "type": "function"
    },
    {
      "constant": true,
      "inputs": [
        {
          "name": "",
          "type": "uint256"
        }
      ],
      "name": "zombieToOwner",
      "outputs": [
        {
          "name": "",
          "type": "address"
        }
      ],
      "payable": false,
      "stateMutability": "view",
      "type": "function"
    },
    {
      "constant": true,
      "inputs": [
        {
          "name": "_owner",
          "type": "address"
        }
      ],
      "name": "getAllHumans",
      "outputs": [
        {
          "name": "",
          "type": "uint256[]"
        }
      ],
      "payable": false,
      "stateMutability": "view",
      "type": "function"
    },
    {
      "constant": false,
      "inputs": [
        {
          "name": "_address",
          "type": "address"
        }
      ],
      "name": "setKittyContractAddress",
      "outputs": [],
      "payable": false,
      "stateMutability": "nonpayable",
      "type": "function"
    },
    {
      "constant": false,
      "inputs": [
        {
          "name": "_zombieId",
          "type": "uint256"
        },
        {
          "name": "_newDna",
          "type": "uint256"
        }
      ],
      "name": "changeDna",
      "outputs": [],
      "payable": true,
      "stateMutability": "payable",
      "type": "function"
    },
    {
      "constant": true,
      "inputs": [],
      "name": "humanZombiecount",
      "outputs": [
        {
          "name": "",
          "type": "uint256"
        }
      ],
      "payable": false,
      "stateMutability": "view",
      "type": "function"
    },
    {
      "constant": false,
      "inputs": [],
      "name": "renounceOwnership",
      "outputs": [],
      "payable": false,
      "stateMutability": "nonpayable",
      "type": "function"
    },
    {
      "constant": false,
      "inputs": [
        {
          "name": "_name",
          "type": "string"
        }
      ],
      "name": "createRandomZombie",
      "outputs": [],
      "payable": false,
      "stateMutability": "nonpayable",
      "type": "function"
    },
    {
      "constant": true,
      "inputs": [
        {
          "name": "",
          "type": "uint256"
        }
      ],
      "name": "humans",
      "outputs": [
        {
          "name": "name",
          "type": "uint256"
        },
        {
          "name": "dna",
          "type": "uint256"
        }
      ],
      "payable": false,
      "stateMutability": "view",
      "type": "function"
    },
    {
      "constant": false,
      "inputs": [
        {
          "name": "_zombieId",
          "type": "uint256"
        },
        {
          "name": "_humanId",
          "type": "uint256"
        },
        {
          "name": "name",
          "type": "string"
        }
      ],
      "name": "feedOnHumans",
      "outputs": [],
      "payable": true,
      "stateMutability": "payable",
      "type": "function"
    },
    {
      "constant": true,
      "inputs": [],
      "name": "owner",
      "outputs": [
        {
          "name": "",
          "type": "address"
        }
      ],
      "payable": false,
      "stateMutability": "view",
      "type": "function"
    },
    {
      "constant": true,
      "inputs": [],
      "name": "isOwner",
      "outputs": [
        {
          "name": "",
          "type": "bool"
        }
      ],
      "payable": false,
      "stateMutability": "view",
      "type": "function"
    },
    {
      "constant": false,
      "inputs": [
        {
          "name": "_zombieId",
          "type": "uint256"
        },
        {
          "name": "_newName",
          "type": "string"
        }
      ],
      "name": "changeName",
      "outputs": [],
      "payable": true,
      "stateMutability": "payable",
      "type": "function"
    },
    {
      "constant": false,
      "inputs": [
        {
          "name": "_fee",
          "type": "uint256"
        }
      ],
      "name": "setLevelUpFee",
      "outputs": [],
      "payable": false,
      "stateMutability": "nonpayable",
      "type": "function"
    },
    {
      "constant": false,
      "inputs": [
        {
          "name": "newOwner",
          "type": "address"
        }
      ],
      "name": "transferOwnership",
      "outputs": [],
      "payable": false,
      "stateMutability": "nonpayable",
      "type": "function"
    },
    {
      "anonymous": false,
      "inputs": [
        {
          "indexed": false,
          "name": "zombieId",
          "type": "uint256"
        },
        {
          "indexed": false,
          "name": "name",
          "type": "string"
        },
        {
          "indexed": false,
          "name": "dna",
          "type": "uint256"
        }
      ],
      "name": "NewZombie",
      "type": "event"
    },
    {
      "anonymous": false,
      "inputs": [
        {
          "indexed": true,
          "name": "previousOwner",
          "type": "address"
        },
        {
          "indexed": true,
          "name": "newOwner",
          "type": "address"
        }
      ],
      "name": "OwnershipTransferred",
      "type": "event"
    },
    {
      "constant": false,
      "inputs": [
        {
          "name": "_zombieId",
          "type": "uint256"
        },
        {
          "name": "_targetId",
          "type": "uint256"
        }
      ],
      "name": "attack",
      "outputs": [],
      "payable": true,
      "stateMutability": "payable",
      "type": "function"
    }
  ],
  "bytecode": "0x60806040526010600155600154600a0a6002556201518060035566038d7ea4c68000600755600a805566038d7ea4c68000600c5566038d7ea4c68000600d556000600e556046600f5566038d7ea4c68000601055600080336000806101000a81548173ffffffffffffffffffffffffffffffffffffffff021916908373ffffffffffffffffffffffffffffffffffffffff1602179055506000809054906101000a900473ffffffffffffffffffffffffffffffffffffffff1673ffffffffffffffffffffffffffffffffffffffff16600073ffffffffffffffffffffffffffffffffffffffff167f8be0079c531659141344cd1fd0a4f28419497f9722a3daafe3b4186f6b6457e060405160405180910390a3600091505b600a8210156102205781604051602001808281526020019150506040516020818303038152906040526040518082805190602001908083835b6020831015156101755780518252602082019150602081019050602083039250610150565b6001836020036101000a0380198251168184511680821785525050505050509050019150506040518091039020600190049050600b6040805190810160405280848152602001662386f26fc10000848115156101cd57fe5b068152509080600181540180825580915050906001820390600052602060002090600202016000909192909190915060008201518160000155602082015181600101555050508180600101925050610117565b505061237a806102316000396000f30060806040526004361061011d576000357c0100000000000000000000000000000000000000000000000000000000900463ffffffff1680630ce90ec21461012257806317a7f4cc146101425780632052465e146101795780633ccfd60b146102715780634412e104146102885780635141eb3a14610320578063528b7b8f1461038d5780635bf5f06a146103fa5780635f4623f1146104925780635faf2880146104d557806370afba5c146104ff578063715018a61461052a5780637bff0a01146105415780638102fced146105aa5780638d8fd597146105f25780638da5cb5b146106345780638f32d59b1461068b578063c39cbef1146106ba578063ccf670f8146106f2578063e1fa76381461071f578063f2fde38b14610749575b600080fd5b6101406004803603810190808035906020019092919050505061078c565b005b34801561014e57600080fd5b506101776004803603810190808035906020019092919080359060200190929190505050610827565b005b34801561018557600080fd5b506101a4600480360381019080803590602001909291905050506109d0565b60405180888152602001806020018781526020018663ffffffff1663ffffffff1681526020018563ffffffff1663ffffffff1681526020018461ffff1661ffff1681526020018361ffff1661ffff168152602001828103825288818151815260200191508051906020019080838360005b83811015610230578082015181840152602081019050610215565b50505050905090810190601f16801561025d5780820380516001836020036101000a031916815260200191505b509850505050505050505060405180910390f35b34801561027d57600080fd5b50610286610af5565b005b34801561029457600080fd5b506102c9600480360381019080803573ffffffffffffffffffffffffffffffffffffffff169060200190929190505050610b75565b6040518080602001828103825283818151815260200191508051906020019060200280838360005b8381101561030c5780820151818401526020810190506102f1565b505050509050019250505060405180910390f35b34801561032c57600080fd5b5061034b60048036038101908080359060200190929190505050610ca7565b604051808273ffffffffffffffffffffffffffffffffffffffff1673ffffffffffffffffffffffffffffffffffffffff16815260200191505060405180910390f35b34801561039957600080fd5b506103b860048036038101908080359060200190929190505050610cda565b604051808273ffffffffffffffffffffffffffffffffffffffff1673ffffffffffffffffffffffffffffffffffffffff16815260200191505060405180910390f35b34801561040657600080fd5b5061043b600480360381019080803573ffffffffffffffffffffffffffffffffffffffff169060200190929190505050610d0d565b6040518080602001828103825283818151815260200191508051906020019060200280838360005b8381101561047e578082015181840152602081019050610463565b505050509050019250505060405180910390f35b34801561049e57600080fd5b506104d3600480360381019080803573ffffffffffffffffffffffffffffffffffffffff169060200190929190505050610e03565b005b6104fd6004803603810190808035906020019092919080359060200190929190505050610e5a565b005b34801561050b57600080fd5b50610514610ffd565b6040518082815260200191505060405180910390f35b34801561053657600080fd5b5061053f611003565b005b34801561054d57600080fd5b506105a8600480360381019080803590602001908201803590602001908080601f01602080910402602001604051908101604052809392919081815260200183838082843782019150505050505091929192905050506110d5565b005b3480156105b657600080fd5b506105d560048036038101908080359060200190929190505050611101565b604051808381526020018281526020019250505060405180910390f35b6106326004803603810190808035906020019092919080359060200190929190803590602001908201803590602001919091929391929390505050611134565b005b34801561064057600080fd5b506106496111e8565b604051808273ffffffffffffffffffffffffffffffffffffffff1673ffffffffffffffffffffffffffffffffffffffff16815260200191505060405180910390f35b34801561069757600080fd5b506106a0611211565b604051808215151515815260200191505060405180910390f35b6106f060048036038101908080359060200190929190803590602001908201803590602001919091929391929390505050611268565b005b3480156106fe57600080fd5b5061071d6004803603810190808035906020019092919050505061136c565b005b6107476004803603810190808035906020019092919080359060200190929190505050611389565b005b34801561075557600080fd5b5061078a600480360381019080803573ffffffffffffffffffffffffffffffffffffffff16906020019092919050505061162c565b005b600c543414151561079c57600080fd5b6107e660016004838154811015156107b057fe5b906000526020600020906004020160030160009054906101000a900463ffffffff1663ffffffff1661164b90919063ffffffff16565b6004828154811015156107f557fe5b906000526020600020906004020160030160006101000a81548163ffffffff021916908363ffffffff16021790555050565b6000600860009054906101000a900473ffffffffffffffffffffffffffffffffffffffff1673ffffffffffffffffffffffffffffffffffffffff1663e98b7f4d836040518263ffffffff167c01000000000000000000000000000000000000000000000000000000000281526004018082815260200191505061014060405180830381600087803b1580156108bb57600080fd5b505af11580156108cf573d6000803e3d6000fd5b505050506040513d6101408110156108e657600080fd5b8101908080519060200190929190805190602001909291908051906020019092919080519060200190929190805190602001909291908051906020019092919080519060200190929190805190602001909291908051906020019092919080519060200190929190505050909192939495969798509091929394959697509091929394959650909192939495509091929394509091929350909192509091509050809150506109cb83826040805190810160405280600581526020017f6b69747479000000000000000000000000000000000000000000000000000000815250611675565b505050565b6004818154811015156109df57fe5b9060005260206000209060040201600091509050806000015490806001018054600181600116156101000203166002900480601f016020809104026020016040519081016040528092919081815260200182805460018160011615610100020316600290048015610a915780601f10610a6657610100808354040283529160200191610a91565b820191906000526020600020905b815481529060010190602001808311610a7457829003601f168201915b5050505050908060020154908060030160009054906101000a900463ffffffff16908060030160049054906101000a900463ffffffff16908060030160089054906101000a900461ffff169080600301600a9054906101000a900461ffff16905087565b6000610aff611211565b1515610b0a57600080fd5b610b126111e8565b90508073ffffffffffffffffffffffffffffffffffffffff166108fc3073ffffffffffffffffffffffffffffffffffffffff16319081150290604051600060405180830381858888f19350505050158015610b71573d6000803e3d6000fd5b5050565b606080600080600660008673ffffffffffffffffffffffffffffffffffffffff1673ffffffffffffffffffffffffffffffffffffffff16815260200190815260200160002054604051908082528060200260200182016040528015610be95781602001602082028038833980820191505090505b50925060009150600090505b600480549050811015610c9c578473ffffffffffffffffffffffffffffffffffffffff166005600083815260200190815260200160002060009054906101000a900473ffffffffffffffffffffffffffffffffffffffff1673ffffffffffffffffffffffffffffffffffffffff161415610c8f57808383815181101515610c7857fe5b906020019060200201818152505081806001019250505b8080600101915050610bf5565b829350505050919050565b60096020528060005260406000206000915054906101000a900473ffffffffffffffffffffffffffffffffffffffff1681565b60056020528060005260406000206000915054906101000a900473ffffffffffffffffffffffffffffffffffffffff1681565b606080600080600a54604051908082528060200260200182016040528015610d445781602001602082028038833980820191505090505b50925060009150600090505b600b80549050811015610df857600073ffffffffffffffffffffffffffffffffffffffff166009600083815260200190815260200160002060009054906101000a900473ffffffffffffffffffffffffffffffffffffffff1673ffffffffffffffffffffffffffffffffffffffff161415610deb57808383815181101515610dd457fe5b906020019060200201818152505081806001019250505b8080600101915050610d50565b829350505050919050565b610e0b611211565b1515610e1657600080fd5b80600860006101000a81548173ffffffffffffffffffffffffffffffffffffffff021916908373ffffffffffffffffffffffffffffffffffffffff16021790555050565b60008060148481600482815481101515610e7057fe5b906000526020600020906004020160030160009054906101000a900463ffffffff1663ffffffff1610151515610ea557600080fd5b856005600082815260200190815260200160002060009054906101000a900473ffffffffffffffffffffffffffffffffffffffff1673ffffffffffffffffffffffffffffffffffffffff163373ffffffffffffffffffffffffffffffffffffffff16141515610f1357600080fd5b600d5434141515610f2357600080fd5b600487815481101515610f3257fe5b9060005260206000209060040201945085604051602001808281526020019150506040516020818303038152906040526040518082805190602001908083835b602083101515610f975780518252602082019150602081019050602083039250610f72565b6001836020036101000a038019825116818451168082178552505050505050905001915050604051809103902060019004935060025484811515610fd757fe5b069350606484811515610fe657fe5b068403935083856002018190555050505050505050565b600a5481565b61100b611211565b151561101657600080fd5b600073ffffffffffffffffffffffffffffffffffffffff166000809054906101000a900473ffffffffffffffffffffffffffffffffffffffff1673ffffffffffffffffffffffffffffffffffffffff167f8be0079c531659141344cd1fd0a4f28419497f9722a3daafe3b4186f6b6457e060405160405180910390a360008060006101000a81548173ffffffffffffffffffffffffffffffffffffffff021916908373ffffffffffffffffffffffffffffffffffffffff160217905550565b60006110e08261190e565b90506064818115156110ee57fe5b06810390506110fd82826119fc565b5050565b600b8181548110151561111057fe5b90600052602060002090600202016000915090508060000154908060010154905082565b60006007543414151561114657600080fd5b600b8481548110151561115557fe5b906000526020600020906002020190506111e18582600101546040805190810160405280600681526020017f68756d616e73000000000000000000000000000000000000000000000000000081525086868080601f0160208091040260200160405190810160405280939291908181526020018383808284378201915050505050508560000154611d0a565b5050505050565b60008060009054906101000a900473ffffffffffffffffffffffffffffffffffffffff16905090565b60008060009054906101000a900473ffffffffffffffffffffffffffffffffffffffff1673ffffffffffffffffffffffffffffffffffffffff163373ffffffffffffffffffffffffffffffffffffffff1614905090565b60006002848160048281548110151561127d57fe5b906000526020600020906004020160030160009054906101000a900463ffffffff1663ffffffff16101515156112b257600080fd5b856005600082815260200190815260200160002060009054906101000a900473ffffffffffffffffffffffffffffffffffffffff1673ffffffffffffffffffffffffffffffffffffffff163373ffffffffffffffffffffffffffffffffffffffff1614151561132057600080fd5b600d543414151561133057600080fd5b60048781548110151561133f57fe5b906000526020600020906004020193508585856001019190611362929190612229565b5050505050505050565b611374611211565b151561137f57600080fd5b80600c8190555050565b6000806000846005600082815260200190815260200160002060009054906101000a900473ffffffffffffffffffffffffffffffffffffffff1673ffffffffffffffffffffffffffffffffffffffff163373ffffffffffffffffffffffffffffffffffffffff161415156113fc57600080fd5b6010543414151561140c57600080fd5b60048681548110151561141b57fe5b9060005260206000209060040201935060048581548110151561143a57fe5b906000526020600020906004020192506114546064611fbe565b9150600f548211151561158a5761148b60018560030160089054906101000a900461ffff1661ffff166120c190919063ffffffff16565b8460030160086101000a81548161ffff021916908361ffff1602179055506114d760018560030160009054906101000a900463ffffffff1663ffffffff1661164b90919063ffffffff16565b8460030160006101000a81548163ffffffff021916908363ffffffff160217905550611523600184600301600a9054906101000a900461ffff1661ffff166120c190919063ffffffff16565b83600301600a6101000a81548161ffff021916908361ffff1602179055506115858684600201546040805190810160405280600681526020017f7a6f6d6269650000000000000000000000000000000000000000000000000000815250611675565b611624565b6115b4600185600301600a9054906101000a900461ffff1661ffff166120c190919063ffffffff16565b84600301600a6101000a81548161ffff021916908361ffff1602179055506115fc60018460030160089054906101000a900461ffff1661ffff166120c190919063ffffffff16565b8360030160086101000a81548161ffff021916908361ffff160217905550611623846120e7565b5b505050505050565b611634611211565b151561163f57600080fd5b61164881612111565b50565b60008082840190508363ffffffff168163ffffffff161015151561166b57fe5b8091505092915050565b600080846005600082815260200190815260200160002060009054906101000a900473ffffffffffffffffffffffffffffffffffffffff1673ffffffffffffffffffffffffffffffffffffffff163373ffffffffffffffffffffffffffffffffffffffff161415156116e657600080fd5b6004868154811015156116f557fe5b906000526020600020906004020192506002548581151561171257fe5b06945060028584600201540181151561172757fe5b04915060405160200180807f6b6974747900000000000000000000000000000000000000000000000000000081525060050190506040516020818303038152906040526040518082805190602001908083835b60208310151561179f578051825260208201915060208101905060208303925061177a565b6001836020036101000a038019825116818451168082178552505050505050905001915050604051809103902060001916846040516020018082805190602001908083835b60208310151561180957805182526020820191506020810190506020830392506117e4565b6001836020036101000a0380198251168184511680821785525050505050509050019150506040516020818303038152906040526040518082805190602001908083835b602083101515611872578051825260208201915060208101905060208303925061184d565b6001836020036101000a03801982511681845116808217855250505050505090500191505060405180910390206000191614156118be5760636064838115156118b757fe5b0683030191505b6118fd6040805190810160405280600681526020017f4e6f4e616d650000000000000000000000000000000000000000000000000000815250836119fc565b611906836120e7565b505050505050565b600080826040516020018082805190602001908083835b60208310151561194a5780518252602082019150602081019050602083039250611925565b6001836020036101000a0380198251168184511680821785525050505050509050019150506040516020818303038152906040526040518082805190602001908083835b6020831015156119b3578051825260208201915060208101905060208303925061198e565b6001836020036101000a0380198251168184511680821785525050505050509050019150506040518091039020600190049050600254818115156119f357fe5b06915050919050565b6000806001600460e06040519081016040528060008152602001878152602001868152602001600163ffffffff168152602001600354420163ffffffff168152602001600061ffff168152602001600061ffff1681525090806001815401808255809150509060018203906000526020600020906004020160009091929091909150600082015181600001556020820151816001019080519060200190611aa49291906122a9565b506040820151816002015560608201518160030160006101000a81548163ffffffff021916908363ffffffff16021790555060808201518160030160046101000a81548163ffffffff021916908363ffffffff16021790555060a08201518160030160086101000a81548161ffff021916908361ffff16021790555060c082015181600301600a6101000a81548161ffff021916908361ffff1602179055505050039150336005600084815260200190815260200160002060006101000a81548173ffffffffffffffffffffffffffffffffffffffff021916908373ffffffffffffffffffffffffffffffffffffffff160217905550611bed6001600660003373ffffffffffffffffffffffffffffffffffffffff1673ffffffffffffffffffffffffffffffffffffffff1681526020019081526020016000205461220b90919063ffffffff16565b600660003373ffffffffffffffffffffffffffffffffffffffff1673ffffffffffffffffffffffffffffffffffffffff16815260200190815260200160002081905550600482815481101515611c3f57fe5b906000526020600020906004020190508181600001819055507f88f026aacbbecc90c18411df4b1185fd8d9be2470f1962f192bf84a27d0704b78285856040518084815260200180602001838152602001828103825284818151815260200191508051906020019080838360005b83811015611cc8578082015181840152602081019050611cad565b50505050905090810190601f168015611cf55780820380516001836020036101000a031916815260200191505b5094505050505060405180910390a150505050565b600080866005600082815260200190815260200160002060009054906101000a900473ffffffffffffffffffffffffffffffffffffffff1673ffffffffffffffffffffffffffffffffffffffff163373ffffffffffffffffffffffffffffffffffffffff16141515611d7b57600080fd5b600488815481101515611d8a57fe5b90600052602060002090600402019250600287846002015401811515611dac57fe5b04915060405160200180807f68756d616e73000000000000000000000000000000000000000000000000000081525060060190506040516020818303038152906040526040518082805190602001908083835b602083101515611e245780518252602082019150602081019050602083039250611dff565b6001836020036101000a038019825116818451168082178552505050505050905001915050604051809103902060001916866040516020018082805190602001908083835b602083101515611e8e5780518252602082019150602081019050602083039250611e69565b6001836020036101000a0380198251168184511680821785525050505050509050019150506040516020818303038152906040526040518082805190602001908083835b602083101515611ef75780518252602082019150602081019050602083039250611ed2565b6001836020036101000a0380198251168184511680821785525050505050509050019150506040518091039020600019161415611f43576063606483811515611f3c57fe5b0683030191505b611f4d85836119fc565b336009600086815260200190815260200160002060006101000a81548173ffffffffffffffffffffffffffffffffffffffff021916908373ffffffffffffffffffffffffffffffffffffffff1602179055506001600a5403600a81905550611fb4836120e7565b5050505050505050565b6000611fd66001600e5461220b90919063ffffffff16565b600e81905550814233600e54604051602001808481526020018373ffffffffffffffffffffffffffffffffffffffff1673ffffffffffffffffffffffffffffffffffffffff166c0100000000000000000000000002815260140182815260200193505050506040516020818303038152906040526040518082805190602001908083835b60208310151561207f578051825260208201915060208101905060208303925061205a565b6001836020036101000a0380198251168184511680821785525050505050509050019150506040518091039020600190048115156120b957fe5b069050919050565b60008082840190508361ffff168161ffff16101515156120dd57fe5b8091505092915050565b60035442018160030160046101000a81548163ffffffff021916908363ffffffff16021790555050565b600073ffffffffffffffffffffffffffffffffffffffff168173ffffffffffffffffffffffffffffffffffffffff161415151561214d57600080fd5b8073ffffffffffffffffffffffffffffffffffffffff166000809054906101000a900473ffffffffffffffffffffffffffffffffffffffff1673ffffffffffffffffffffffffffffffffffffffff167f8be0079c531659141344cd1fd0a4f28419497f9722a3daafe3b4186f6b6457e060405160405180910390a3806000806101000a81548173ffffffffffffffffffffffffffffffffffffffff021916908373ffffffffffffffffffffffffffffffffffffffff16021790555050565b600080828401905083811015151561221f57fe5b8091505092915050565b828054600181600116156101000203166002900490600052602060002090601f016020900481019282601f1061226a57803560ff1916838001178555612298565b82800160010185558215612298579182015b8281111561229757823582559160200191906001019061227c565b5b5090506122a59190612329565b5090565b828054600181600116156101000203166002900490600052602060002090601f016020900481019282601f106122ea57805160ff1916838001178555612318565b82800160010185558215612318579182015b828111156123175782518255916020019190600101906122fc565b5b5090506123259190612329565b5090565b61234b91905b8082111561234757600081600090555060010161232f565b5090565b905600a165627a7a72305820313ba040b75b2b2ab07a1fb9e36b52246d795e89f0168770d2cb80081e4faa0a0029",
  "source": "pragma solidity ^0.4.25;\n\nimport \"./zombiehelper.sol\";\n\ncontract ZombieAttack is ZombieHelper {\n  uint randNonce = 0;\n  uint attackVictoryProbability = 70;\n  uint attackFee = 0.001 ether;\n\n  function randMod(uint _modulus) internal returns(uint) {\n    randNonce = randNonce.add(1);\n    return uint(keccak256(abi.encodePacked(now, msg.sender, randNonce))) % _modulus;\n  }\n\n  function attack(uint _zombieId, uint _targetId) external payable onlyOwnerOf(_zombieId) {\n    require(msg.value == attackFee);\n    Zombie storage myZombie = zombies[_zombieId];\n    Zombie storage enemyZombie = zombies[_targetId];\n    uint rand = randMod(100);\n    if (rand <= attackVictoryProbability) {\n      myZombie.winCount = myZombie.winCount.add(1);\n      myZombie.level = myZombie.level.add(1);\n      enemyZombie.lossCount = enemyZombie.lossCount.add(1);\n      feedAndMultiply(_zombieId, enemyZombie.dna, \"zombie\");\n    } else {\n      myZombie.lossCount = myZombie.lossCount.add(1);\n      enemyZombie.winCount = enemyZombie.winCount.add(1);\n      _triggerCooldown(myZombie);\n    }\n  }\n}\n",
  "sourcePath": "/Users/naveenyalla/Downloads/Cryptozombie demo package/contracts/zombieattack.sol",
  "compiler": {
    "name": "solc",
    "version": "0.4.25+commit.59dbf8f1.Emscripten.clang"
  },
  "schemaVersion": "3.4.6",
  "updatedAt": "2022-03-25T07:31:23.757Z",
  "networkType": "ethereum",
  "devdoc": {
    "methods": {
      "isOwner()": {
        "return": "true if `msg.sender` is the owner of the contract."
      },
      "owner()": {
        "return": "the address of the owner."
      },
      "renounceOwnership()": {
        "details": "Allows the current owner to relinquish control of the contract."
      },
      "transferOwnership(address)": {
        "details": "Allows the current owner to transfer control of the contract to a newOwner.",
        "params": {
          "newOwner": "The address to transfer ownership to."
        }
      }
    }
  },
  "userdoc": {
    "methods": {
      "renounceOwnership()": {
        "notice": "Renouncing to ownership will leave the contract without an owner. It will not be possible to call the functions with the `onlyOwner` modifier anymore."
      }
    }
  }
}