{
  "contractName": "ZombieFeeding",
  "abi": [
    {
      "constant": true,
      "inputs": [
        {
          "name": "",
          "type": "uint256"
        }
      ],
      "name": "zombies",
      "outputs": [
        {
          "name": "id",
          "type": "uint256"
        },
        {
          "name": "name",
          "type": "string"
        },
        {
          "name": "dna",
          "type": "uint256"
        },
        {
          "name": "level",
          "type": "uint32"
        },
        {
          "name": "readyTime",
          "type": "uint32"
        },
        {
          "name": "winCount",
          "type": "uint16"
        },
        {
          "name": "lossCount",
          "type": "uint16"
        }
      ],
      "payable": false,
      "stateMutability": "view",
      "type": "function"
    },
    {
      "constant": true,
      "inputs": [
        {
          "name": "",
          "type": "uint256"
        }
      ],
      "name": "humanToZombie",
      "outputs": [
        {
          "name": "",
          "type": "address"
        }
      ],
      "payable": false,
      "stateMutability": "view",
      "type": "function"
    },
    {
      "constant": true,
      "inputs": [
        {
          "name": "",
          "type": "uint256"
        }
      ],
      "name": "zombieToOwner",
      "outputs": [
        {
          "name": "",
          "type": "address"
        }
      ],
      "payable": false,
      "stateMutability": "view",
      "type": "function"
    },
    {
      "constant": true,
      "inputs": [],
      "name": "humanZombiecount",
      "outputs": [
        {
          "name": "",
          "type": "uint256"
        }
      ],
      "payable": false,
      "stateMutability": "view",
      "type": "function"
    },
    {
      "constant": false,
      "inputs": [],
      "name": "renounceOwnership",
      "outputs": [],
      "payable": false,
      "stateMutability": "nonpayable",
      "type": "function"
    },
    {
      "constant": false,
      "inputs": [
        {
          "name": "_name",
          "type": "string"
        }
      ],
      "name": "createRandomZombie",
      "outputs": [],
      "payable": false,
      "stateMutability": "nonpayable",
      "type": "function"
    },
    {
      "constant": true,
      "inputs": [
        {
          "name": "",
          "type": "uint256"
        }
      ],
      "name": "humans",
      "outputs": [
        {
          "name": "name",
          "type": "uint256"
        },
        {
          "name": "dna",
          "type": "uint256"
        }
      ],
      "payable": false,
      "stateMutability": "view",
      "type": "function"
    },
    {
      "constant": true,
      "inputs": [],
      "name": "owner",
      "outputs": [
        {
          "name": "",
          "type": "address"
        }
      ],
      "payable": false,
      "stateMutability": "view",
      "type": "function"
    },
    {
      "constant": true,
      "inputs": [],
      "name": "isOwner",
      "outputs": [
        {
          "name": "",
          "type": "bool"
        }
      ],
      "payable": false,
      "stateMutability": "view",
      "type": "function"
    },
    {
      "constant": false,
      "inputs": [
        {
          "name": "newOwner",
          "type": "address"
        }
      ],
      "name": "transferOwnership",
      "outputs": [],
      "payable": false,
      "stateMutability": "nonpayable",
      "type": "function"
    },
    {
      "inputs": [],
      "payable": false,
      "stateMutability": "nonpayable",
      "type": "constructor"
    },
    {
      "anonymous": false,
      "inputs": [
        {
          "indexed": false,
          "name": "zombieId",
          "type": "uint256"
        },
        {
          "indexed": false,
          "name": "name",
          "type": "string"
        },
        {
          "indexed": false,
          "name": "dna",
          "type": "uint256"
        }
      ],
      "name": "NewZombie",
      "type": "event"
    },
    {
      "anonymous": false,
      "inputs": [
        {
          "indexed": true,
          "name": "previousOwner",
          "type": "address"
        },
        {
          "indexed": true,
          "name": "newOwner",
          "type": "address"
        }
      ],
      "name": "OwnershipTransferred",
      "type": "event"
    },
    {
      "constant": false,
      "inputs": [
        {
          "name": "_address",
          "type": "address"
        }
      ],
      "name": "setKittyContractAddress",
      "outputs": [],
      "payable": false,
      "stateMutability": "nonpayable",
      "type": "function"
    },
    {
      "constant": false,
      "inputs": [
        {
          "name": "_zombieId",
          "type": "uint256"
        },
        {
          "name": "_kittyId",
          "type": "uint256"
        }
      ],
      "name": "feedOnKitty",
      "outputs": [],
      "payable": false,
      "stateMutability": "nonpayable",
      "type": "function"
    },
    {
      "constant": false,
      "inputs": [
        {
          "name": "_zombieId",
          "type": "uint256"
        },
        {
          "name": "_humanId",
          "type": "uint256"
        },
        {
          "name": "name",
          "type": "string"
        }
      ],
      "name": "feedOnHumans",
      "outputs": [],
      "payable": true,
      "stateMutability": "payable",
      "type": "function"
    }
  ],
  "bytecode": "0x60806040526010600155600154600a0a6002556201518060035566038d7ea4c68000600755600a805534801561003457600080fd5b50600080336000806101000a81548173ffffffffffffffffffffffffffffffffffffffff021916908373ffffffffffffffffffffffffffffffffffffffff1602179055506000809054906101000a900473ffffffffffffffffffffffffffffffffffffffff1673ffffffffffffffffffffffffffffffffffffffff16600073ffffffffffffffffffffffffffffffffffffffff167f8be0079c531659141344cd1fd0a4f28419497f9722a3daafe3b4186f6b6457e060405160405180910390a3600091505b600a8210156102025781604051602001808281526020019150506040516020818303038152906040526040518082805190602001908083835b6020831015156101575780518252602082019150602081019050602083039250610132565b6001836020036101000a0380198251168184511680821785525050505050509050019150506040518091039020600190049050600b6040805190810160405280848152602001662386f26fc10000848115156101af57fe5b0681525090806001815401808255809150509060018203906000526020600020906002020160009091929091909150600082015181600001556020820151816001015550505081806001019250506100f9565b5050611685806102136000396000f3006080604052600436106100c5576000357c0100000000000000000000000000000000000000000000000000000000900463ffffffff16806317a7f4cc146100ca5780632052465e146101015780635141eb3a146101f9578063528b7b8f146102665780635f4623f1146102d357806370afba5c14610316578063715018a6146103415780637bff0a01146103585780638102fced146103c15780638d8fd597146104095780638da5cb5b1461044b5780638f32d59b146104a2578063f2fde38b146104d1575b600080fd5b3480156100d657600080fd5b506100ff6004803603810190808035906020019092919080359060200190929190505050610514565b005b34801561010d57600080fd5b5061012c600480360381019080803590602001909291905050506106bd565b60405180888152602001806020018781526020018663ffffffff1663ffffffff1681526020018563ffffffff1663ffffffff1681526020018461ffff1661ffff1681526020018361ffff1661ffff168152602001828103825288818151815260200191508051906020019080838360005b838110156101b857808201518184015260208101905061019d565b50505050905090810190601f1680156101e55780820380516001836020036101000a031916815260200191505b509850505050505050505060405180910390f35b34801561020557600080fd5b50610224600480360381019080803590602001909291905050506107e2565b604051808273ffffffffffffffffffffffffffffffffffffffff1673ffffffffffffffffffffffffffffffffffffffff16815260200191505060405180910390f35b34801561027257600080fd5b5061029160048036038101908080359060200190929190505050610815565b604051808273ffffffffffffffffffffffffffffffffffffffff1673ffffffffffffffffffffffffffffffffffffffff16815260200191505060405180910390f35b3480156102df57600080fd5b50610314600480360381019080803573ffffffffffffffffffffffffffffffffffffffff169060200190929190505050610848565b005b34801561032257600080fd5b5061032b61089f565b6040518082815260200191505060405180910390f35b34801561034d57600080fd5b506103566108a5565b005b34801561036457600080fd5b506103bf600480360381019080803590602001908201803590602001908080601f0160208091040260200160405190810160405280939291908181526020018383808284378201915050505050509192919290505050610977565b005b3480156103cd57600080fd5b506103ec600480360381019080803590602001909291905050506109a3565b604051808381526020018281526020019250505060405180910390f35b61044960048036038101908080359060200190929190803590602001909291908035906020019082018035906020019190919293919293905050506109d6565b005b34801561045757600080fd5b50610460610a8a565b604051808273ffffffffffffffffffffffffffffffffffffffff1673ffffffffffffffffffffffffffffffffffffffff16815260200191505060405180910390f35b3480156104ae57600080fd5b506104b7610ab3565b604051808215151515815260200191505060405180910390f35b3480156104dd57600080fd5b50610512600480360381019080803573ffffffffffffffffffffffffffffffffffffffff169060200190929190505050610b0a565b005b6000600860009054906101000a900473ffffffffffffffffffffffffffffffffffffffff1673ffffffffffffffffffffffffffffffffffffffff1663e98b7f4d836040518263ffffffff167c01000000000000000000000000000000000000000000000000000000000281526004018082815260200191505061014060405180830381600087803b1580156105a857600080fd5b505af11580156105bc573d6000803e3d6000fd5b505050506040513d6101408110156105d357600080fd5b8101908080519060200190929190805190602001909291908051906020019092919080519060200190929190805190602001909291908051906020019092919080519060200190929190805190602001909291908051906020019092919080519060200190929190505050909192939495969798509091929394959697509091929394959650909192939495509091929394509091929350909192509091509050809150506106b883826040805190810160405280600581526020017f6b69747479000000000000000000000000000000000000000000000000000000815250610b29565b505050565b6004818154811015156106cc57fe5b9060005260206000209060040201600091509050806000015490806001018054600181600116156101000203166002900480601f01602080910402602001604051908101604052809291908181526020018280546001816001161561010002031660029004801561077e5780601f106107535761010080835404028352916020019161077e565b820191906000526020600020905b81548152906001019060200180831161076157829003601f168201915b5050505050908060020154908060030160009054906101000a900463ffffffff16908060030160049054906101000a900463ffffffff16908060030160089054906101000a900461ffff169080600301600a9054906101000a900461ffff16905087565b60096020528060005260406000206000915054906101000a900473ffffffffffffffffffffffffffffffffffffffff1681565b60056020528060005260406000206000915054906101000a900473ffffffffffffffffffffffffffffffffffffffff1681565b610850610ab3565b151561085b57600080fd5b80600860006101000a81548173ffffffffffffffffffffffffffffffffffffffff021916908373ffffffffffffffffffffffffffffffffffffffff16021790555050565b600a5481565b6108ad610ab3565b15156108b857600080fd5b600073ffffffffffffffffffffffffffffffffffffffff166000809054906101000a900473ffffffffffffffffffffffffffffffffffffffff1673ffffffffffffffffffffffffffffffffffffffff167f8be0079c531659141344cd1fd0a4f28419497f9722a3daafe3b4186f6b6457e060405160405180910390a360008060006101000a81548173ffffffffffffffffffffffffffffffffffffffff021916908373ffffffffffffffffffffffffffffffffffffffff160217905550565b600061098282610dc2565b905060648181151561099057fe5b068103905061099f8282610eb0565b5050565b600b818154811015156109b257fe5b90600052602060002090600202016000915090508060000154908060010154905082565b6000600754341415156109e857600080fd5b600b848154811015156109f757fe5b90600052602060002090600202019050610a838582600101546040805190810160405280600681526020017f68756d616e73000000000000000000000000000000000000000000000000000081525086868080601f01602080910402602001604051908101604052809392919081815260200183838082843782019150505050505085600001546111be565b5050505050565b60008060009054906101000a900473ffffffffffffffffffffffffffffffffffffffff16905090565b60008060009054906101000a900473ffffffffffffffffffffffffffffffffffffffff1673ffffffffffffffffffffffffffffffffffffffff163373ffffffffffffffffffffffffffffffffffffffff1614905090565b610b12610ab3565b1515610b1d57600080fd5b610b2681611472565b50565b600080846005600082815260200190815260200160002060009054906101000a900473ffffffffffffffffffffffffffffffffffffffff1673ffffffffffffffffffffffffffffffffffffffff163373ffffffffffffffffffffffffffffffffffffffff16141515610b9a57600080fd5b600486815481101515610ba957fe5b9060005260206000209060040201925060025485811515610bc657fe5b069450600285846002015401811515610bdb57fe5b04915060405160200180807f6b6974747900000000000000000000000000000000000000000000000000000081525060050190506040516020818303038152906040526040518082805190602001908083835b602083101515610c535780518252602082019150602081019050602083039250610c2e565b6001836020036101000a038019825116818451168082178552505050505050905001915050604051809103902060001916846040516020018082805190602001908083835b602083101515610cbd5780518252602082019150602081019050602083039250610c98565b6001836020036101000a0380198251168184511680821785525050505050509050019150506040516020818303038152906040526040518082805190602001908083835b602083101515610d265780518252602082019150602081019050602083039250610d01565b6001836020036101000a0380198251168184511680821785525050505050509050019150506040518091039020600019161415610d72576063606483811515610d6b57fe5b0683030191505b610db16040805190810160405280600681526020017f4e6f4e616d65000000000000000000000000000000000000000000000000000081525083610eb0565b610dba8361156c565b505050505050565b600080826040516020018082805190602001908083835b602083101515610dfe5780518252602082019150602081019050602083039250610dd9565b6001836020036101000a0380198251168184511680821785525050505050509050019150506040516020818303038152906040526040518082805190602001908083835b602083101515610e675780518252602082019150602081019050602083039250610e42565b6001836020036101000a038019825116818451168082178552505050505050905001915050604051809103902060019004905060025481811515610ea757fe5b06915050919050565b6000806001600460e06040519081016040528060008152602001878152602001868152602001600163ffffffff168152602001600354420163ffffffff168152602001600061ffff168152602001600061ffff1681525090806001815401808255809150509060018203906000526020600020906004020160009091929091909150600082015181600001556020820151816001019080519060200190610f589291906115b4565b506040820151816002015560608201518160030160006101000a81548163ffffffff021916908363ffffffff16021790555060808201518160030160046101000a81548163ffffffff021916908363ffffffff16021790555060a08201518160030160086101000a81548161ffff021916908361ffff16021790555060c082015181600301600a6101000a81548161ffff021916908361ffff1602179055505050039150336005600084815260200190815260200160002060006101000a81548173ffffffffffffffffffffffffffffffffffffffff021916908373ffffffffffffffffffffffffffffffffffffffff1602179055506110a16001600660003373ffffffffffffffffffffffffffffffffffffffff1673ffffffffffffffffffffffffffffffffffffffff1681526020019081526020016000205461159690919063ffffffff16565b600660003373ffffffffffffffffffffffffffffffffffffffff1673ffffffffffffffffffffffffffffffffffffffff168152602001908152602001600020819055506004828154811015156110f357fe5b906000526020600020906004020190508181600001819055507f88f026aacbbecc90c18411df4b1185fd8d9be2470f1962f192bf84a27d0704b78285856040518084815260200180602001838152602001828103825284818151815260200191508051906020019080838360005b8381101561117c578082015181840152602081019050611161565b50505050905090810190601f1680156111a95780820380516001836020036101000a031916815260200191505b5094505050505060405180910390a150505050565b600080866005600082815260200190815260200160002060009054906101000a900473ffffffffffffffffffffffffffffffffffffffff1673ffffffffffffffffffffffffffffffffffffffff163373ffffffffffffffffffffffffffffffffffffffff1614151561122f57600080fd5b60048881548110151561123e57fe5b9060005260206000209060040201925060028784600201540181151561126057fe5b04915060405160200180807f68756d616e73000000000000000000000000000000000000000000000000000081525060060190506040516020818303038152906040526040518082805190602001908083835b6020831015156112d857805182526020820191506020810190506020830392506112b3565b6001836020036101000a038019825116818451168082178552505050505050905001915050604051809103902060001916866040516020018082805190602001908083835b602083101515611342578051825260208201915060208101905060208303925061131d565b6001836020036101000a0380198251168184511680821785525050505050509050019150506040516020818303038152906040526040518082805190602001908083835b6020831015156113ab5780518252602082019150602081019050602083039250611386565b6001836020036101000a03801982511681845116808217855250505050505090500191505060405180910390206000191614156113f75760636064838115156113f057fe5b0683030191505b6114018583610eb0565b336009600086815260200190815260200160002060006101000a81548173ffffffffffffffffffffffffffffffffffffffff021916908373ffffffffffffffffffffffffffffffffffffffff1602179055506001600a5403600a819055506114688361156c565b5050505050505050565b600073ffffffffffffffffffffffffffffffffffffffff168173ffffffffffffffffffffffffffffffffffffffff16141515156114ae57600080fd5b8073ffffffffffffffffffffffffffffffffffffffff166000809054906101000a900473ffffffffffffffffffffffffffffffffffffffff1673ffffffffffffffffffffffffffffffffffffffff167f8be0079c531659141344cd1fd0a4f28419497f9722a3daafe3b4186f6b6457e060405160405180910390a3806000806101000a81548173ffffffffffffffffffffffffffffffffffffffff021916908373ffffffffffffffffffffffffffffffffffffffff16021790555050565b60035442018160030160046101000a81548163ffffffff021916908363ffffffff16021790555050565b60008082840190508381101515156115aa57fe5b8091505092915050565b828054600181600116156101000203166002900490600052602060002090601f016020900481019282601f106115f557805160ff1916838001178555611623565b82800160010185558215611623579182015b82811115611622578251825591602001919060010190611607565b5b5090506116309190611634565b5090565b61165691905b8082111561165257600081600090555060010161163a565b5090565b905600a165627a7a723058200bb899ae904d0226d06b5262b243d9d6f48b4f4e229a9e2e4640fc136858f0440029",
  "source": "pragma solidity ^0.4.25;\n\nimport \"./zombiefactory.sol\";\n\ncontract KittyInterface {\n  function getKitty(uint256 _id) external view returns (\n    bool isGestating,\n    bool isReady,\n    uint256 cooldownIndex,\n    uint256 nextActionAt,\n    uint256 siringWithId,\n    uint256 birthTime,\n    uint256 matronId,\n    uint256 sireId,\n    uint256 generation,\n    uint256 genes\n  );\n}\n\ncontract ZombieFeeding is ZombieFactory {\n uint humanFee = 0.001 ether;\n  KittyInterface kittyContract;\n   struct Human {\n    uint name;\n    uint dna;\n  }\n  mapping (uint => address) public humanToZombie;\n  uint public humanZombiecount=10;\n  Human[] public humans;\n\n  constructor() public{\n   for (uint i = 0; i <10; i++) {\n       uint rand = uint(keccak256(abi.encodePacked(i)));\n       humans.push(Human(i,rand%(10**16)));\n   }\n\n  }\n\n  modifier onlyOwnerOf(uint _zombieId) {\n    require(msg.sender == zombieToOwner[_zombieId]);\n    _;\n  }\n\n  function setKittyContractAddress(address _address) external onlyOwner {\n    kittyContract = KittyInterface(_address);\n  }\n\n  function _triggerCooldown(Zombie storage _zombie) internal {\n    _zombie.readyTime = uint32(now + cooldownTime);\n  }\n\n  function _isReady(Zombie storage _zombie) internal view returns (bool) {\n      return (_zombie.readyTime <= now);\n  }\n\n  function feedAndMultiply(uint _zombieId, uint _targetDna, string _species) internal onlyOwnerOf(_zombieId) {\n    Zombie storage myZombie = zombies[_zombieId];\n   // require(_isReady(myZombie));\n    _targetDna = _targetDna % dnaModulus;\n    uint newDna = (myZombie.dna + _targetDna) / 2;\n    if (keccak256(abi.encodePacked(_species)) == keccak256(abi.encodePacked(\"kitty\"))) {\n      newDna = newDna - newDna % 100 + 99;\n    }\n    _createZombie(\"NoName\", newDna);\n    _triggerCooldown(myZombie);\n  }\n\n  function feedOnKitty(uint _zombieId, uint _kittyId) public {\n    uint kittyDna;\n    (,,,,,,,,,kittyDna) = kittyContract.getKitty(_kittyId);\n    feedAndMultiply(_zombieId, kittyDna, \"kitty\");\n  }\n\n\n  function feedAndMutiplies(uint _zombieId, uint _targetDna , string _species ,string name,uint _humanId) internal onlyOwnerOf(_zombieId){\n    Zombie storage myZombie = zombies[_zombieId];\n    //require(_isReady(myZombie));\n    uint newDna = (myZombie.dna + _targetDna) / 2;\n    if (keccak256(abi.encodePacked(_species)) == keccak256(abi.encodePacked(\"humans\"))) {\n      newDna = newDna - newDna % 100 + 99;\n     }\n     _createZombie(name, newDna);\n     humanToZombie[_humanId] = msg.sender;\n    // ownerZombieHumanCount[msg.sender] = ownerZombieHumanCount[msg.sender].add(1);\n     humanZombiecount = humanZombiecount - 1;\n     _triggerCooldown(myZombie);\n\n\n  }\n  function feedOnHumans(uint _zombieId ,uint _humanId,string name) external payable{\n    require(msg.value == humanFee);\n    Human storage myHuman = humans[_humanId];\n    feedAndMutiplies(_zombieId,myHuman.dna,\"humans\",name,myHuman.name);\n    }\n\n //function feedOnHumans(uint _zombieId ,uint _humanId,string name) external payable{\n  //  require(msg.value == humanFee);\n //   Human storage myHuman = humans[_humanId];\n //   feedAndMutiplies(_zombieId,myHuman.dna,\"humans\",name,myHuman.name);\n    \n//  }\n\n\n\n\n}\n\n",
  "sourcePath": "/Users/naveenyalla/Downloads/Cryptozombie demo package/contracts/zombiefeeding.sol",
  "compiler": {
    "name": "solc",
    "version": "0.4.25+commit.59dbf8f1.Emscripten.clang"
  },
  "schemaVersion": "3.4.6",
  "updatedAt": "2022-03-25T07:31:23.752Z",
  "networkType": "ethereum",
  "devdoc": {
    "methods": {
      "isOwner()": {
        "return": "true if `msg.sender` is the owner of the contract."
      },
      "owner()": {
        "return": "the address of the owner."
      },
      "renounceOwnership()": {
        "details": "Allows the current owner to relinquish control of the contract."
      },
      "transferOwnership(address)": {
        "details": "Allows the current owner to transfer control of the contract to a newOwner.",
        "params": {
          "newOwner": "The address to transfer ownership to."
        }
      }
    }
  },
  "userdoc": {
    "methods": {
      "renounceOwnership()": {
        "notice": "Renouncing to ownership will leave the contract without an owner. It will not be possible to call the functions with the `onlyOwner` modifier anymore."
      }
    }
  }
}